{
  "_format": "hh-sol-artifact-1",
  "contractName": "EnergyTrading",
  "sourceName": "contracts/EnergyTrading.sol",
  "abi": [
    {
      "anonymous": false,
      "inputs": [
        {
          "indexed": false,
          "internalType": "uint256",
          "name": "listingId",
          "type": "uint256"
        },
        {
          "indexed": true,
          "internalType": "address",
          "name": "consumer",
          "type": "address"
        },
        {
          "indexed": false,
          "internalType": "uint256",
          "name": "bidAmount",
          "type": "uint256"
        }
      ],
      "name": "BidPlaced",
      "type": "event"
    },
    {
      "anonymous": false,
      "inputs": [
        {
          "indexed": false,
          "internalType": "uint256",
          "name": "listingId",
          "type": "uint256"
        },
        {
          "indexed": true,
          "internalType": "address",
          "name": "prosumer",
          "type": "address"
        }
      ],
      "name": "EnergyListingDeleted",
      "type": "event"
    },
    {
      "anonymous": false,
      "inputs": [
        {
          "indexed": false,
          "internalType": "uint256",
          "name": "listingId",
          "type": "uint256"
        },
        {
          "indexed": true,
          "internalType": "address",
          "name": "prosumer",
          "type": "address"
        },
        {
          "indexed": false,
          "internalType": "uint256",
          "name": "energyAmount",
          "type": "uint256"
        },
        {
          "indexed": false,
          "internalType": "uint256",
          "name": "minPrice",
          "type": "uint256"
        },
        {
          "indexed": false,
          "internalType": "uint256",
          "name": "auctionEnd",
          "type": "uint256"
        }
      ],
      "name": "EnergyListingEdited",
      "type": "event"
    },
    {
      "anonymous": false,
      "inputs": [
        {
          "indexed": false,
          "internalType": "uint256",
          "name": "listingId",
          "type": "uint256"
        },
        {
          "indexed": true,
          "internalType": "address",
          "name": "prosumer",
          "type": "address"
        },
        {
          "indexed": false,
          "internalType": "uint256",
          "name": "energyAmount",
          "type": "uint256"
        },
        {
          "indexed": false,
          "internalType": "uint256",
          "name": "minPrice",
          "type": "uint256"
        }
      ],
      "name": "EnergyPosted",
      "type": "event"
    },
    {
      "anonymous": false,
      "inputs": [
        {
          "indexed": true,
          "internalType": "address",
          "name": "user",
          "type": "address"
        },
        {
          "indexed": false,
          "internalType": "uint256",
          "name": "amount",
          "type": "uint256"
        }
      ],
      "name": "EnergyStored",
      "type": "event"
    },
    {
      "anonymous": false,
      "inputs": [
        {
          "indexed": true,
          "internalType": "address",
          "name": "user",
          "type": "address"
        },
        {
          "indexed": false,
          "internalType": "enum EnergyTrading.Role",
          "name": "role",
          "type": "uint8"
        },
        {
          "indexed": false,
          "internalType": "string",
          "name": "hardwareId",
          "type": "string"
        }
      ],
      "name": "Registered",
      "type": "event"
    },
    {
      "anonymous": false,
      "inputs": [
        {
          "indexed": false,
          "internalType": "uint256",
          "name": "listingId",
          "type": "uint256"
        },
        {
          "indexed": true,
          "internalType": "address",
          "name": "consumer",
          "type": "address"
        }
      ],
      "name": "TradeFinalized",
      "type": "event"
    },
    {
      "inputs": [
        {
          "internalType": "uint256",
          "name": "_listingId",
          "type": "uint256"
        }
      ],
      "name": "deleteEnergyPost",
      "outputs": [],
      "stateMutability": "nonpayable",
      "type": "function"
    },
    {
      "inputs": [
        {
          "internalType": "uint256",
          "name": "_listingId",
          "type": "uint256"
        },
        {
          "internalType": "uint256",
          "name": "_energyAmount",
          "type": "uint256"
        },
        {
          "internalType": "uint256",
          "name": "_minPrice",
          "type": "uint256"
        },
        {
          "internalType": "uint256",
          "name": "_auctionEnd",
          "type": "uint256"
        }
      ],
      "name": "editEnergyPost",
      "outputs": [],
      "stateMutability": "nonpayable",
      "type": "function"
    },
    {
      "inputs": [
        {
          "internalType": "uint256",
          "name": "_listingId",
          "type": "uint256"
        }
      ],
      "name": "finalizeTrade",
      "outputs": [],
      "stateMutability": "nonpayable",
      "type": "function"
    },
    {
      "inputs": [],
      "name": "getAllActiveOffers",
      "outputs": [
        {
          "components": [
            {
              "internalType": "uint256",
              "name": "id",
              "type": "uint256"
            },
            {
              "internalType": "address",
              "name": "prosumer",
              "type": "address"
            },
            {
              "internalType": "uint256",
              "name": "energyAmount",
              "type": "uint256"
            },
            {
              "internalType": "uint256",
              "name": "minPrice",
              "type": "uint256"
            },
            {
              "internalType": "enum EnergyTrading.TradeStatus",
              "name": "status",
              "type": "uint8"
            },
            {
              "internalType": "address",
              "name": "highestBidder",
              "type": "address"
            },
            {
              "internalType": "uint256",
              "name": "highestBid",
              "type": "uint256"
            },
            {
              "internalType": "address",
              "name": "secondHighestBidder",
              "type": "address"
            },
            {
              "internalType": "uint256",
              "name": "secondHighestBid",
              "type": "uint256"
            },
            {
              "internalType": "uint256",
              "name": "auctionEnd",
              "type": "uint256"
            },
            {
              "internalType": "bool",
              "name": "isScheduled",
              "type": "bool"
            }
          ],
          "internalType": "struct EnergyTrading.EnergyListing[]",
          "name": "",
          "type": "tuple[]"
        }
      ],
      "stateMutability": "view",
      "type": "function"
    },
    {
      "inputs": [
        {
          "internalType": "address",
          "name": "consumer",
          "type": "address"
        }
      ],
      "name": "getMyBids",
      "outputs": [
        {
          "components": [
            {
              "internalType": "uint256",
              "name": "id",
              "type": "uint256"
            },
            {
              "internalType": "address",
              "name": "prosumer",
              "type": "address"
            },
            {
              "internalType": "uint256",
              "name": "energyAmount",
              "type": "uint256"
            },
            {
              "internalType": "uint256",
              "name": "minPrice",
              "type": "uint256"
            },
            {
              "internalType": "enum EnergyTrading.TradeStatus",
              "name": "status",
              "type": "uint8"
            },
            {
              "internalType": "address",
              "name": "highestBidder",
              "type": "address"
            },
            {
              "internalType": "uint256",
              "name": "highestBid",
              "type": "uint256"
            },
            {
              "internalType": "address",
              "name": "secondHighestBidder",
              "type": "address"
            },
            {
              "internalType": "uint256",
              "name": "secondHighestBid",
              "type": "uint256"
            },
            {
              "internalType": "uint256",
              "name": "auctionEnd",
              "type": "uint256"
            },
            {
              "internalType": "bool",
              "name": "isScheduled",
              "type": "bool"
            }
          ],
          "internalType": "struct EnergyTrading.EnergyListing[]",
          "name": "",
          "type": "tuple[]"
        }
      ],
      "stateMutability": "view",
      "type": "function"
    },
    {
      "inputs": [
        {
          "internalType": "address",
          "name": "prosumer",
          "type": "address"
        }
      ],
      "name": "getMyPosts",
      "outputs": [
        {
          "components": [
            {
              "internalType": "uint256",
              "name": "id",
              "type": "uint256"
            },
            {
              "internalType": "address",
              "name": "prosumer",
              "type": "address"
            },
            {
              "internalType": "uint256",
              "name": "energyAmount",
              "type": "uint256"
            },
            {
              "internalType": "uint256",
              "name": "minPrice",
              "type": "uint256"
            },
            {
              "internalType": "enum EnergyTrading.TradeStatus",
              "name": "status",
              "type": "uint8"
            },
            {
              "internalType": "address",
              "name": "highestBidder",
              "type": "address"
            },
            {
              "internalType": "uint256",
              "name": "highestBid",
              "type": "uint256"
            },
            {
              "internalType": "address",
              "name": "secondHighestBidder",
              "type": "address"
            },
            {
              "internalType": "uint256",
              "name": "secondHighestBid",
              "type": "uint256"
            },
            {
              "internalType": "uint256",
              "name": "auctionEnd",
              "type": "uint256"
            },
            {
              "internalType": "bool",
              "name": "isScheduled",
              "type": "bool"
            }
          ],
          "internalType": "struct EnergyTrading.EnergyListing[]",
          "name": "",
          "type": "tuple[]"
        }
      ],
      "stateMutability": "view",
      "type": "function"
    },
    {
      "inputs": [
        {
          "internalType": "address",
          "name": "_user",
          "type": "address"
        }
      ],
      "name": "getStoredEnergy",
      "outputs": [
        {
          "internalType": "uint256",
          "name": "",
          "type": "uint256"
        }
      ],
      "stateMutability": "view",
      "type": "function"
    },
    {
      "inputs": [
        {
          "internalType": "address",
          "name": "_user",
          "type": "address"
        }
      ],
      "name": "getUserHardwareId",
      "outputs": [
        {
          "internalType": "string",
          "name": "",
          "type": "string"
        }
      ],
      "stateMutability": "view",
      "type": "function"
    },
    {
      "inputs": [],
      "name": "listingCount",
      "outputs": [
        {
          "internalType": "uint256",
          "name": "",
          "type": "uint256"
        }
      ],
      "stateMutability": "view",
      "type": "function"
    },
    {
      "inputs": [
        {
          "internalType": "uint256",
          "name": "",
          "type": "uint256"
        }
      ],
      "name": "listings",
      "outputs": [
        {
          "internalType": "uint256",
          "name": "id",
          "type": "uint256"
        },
        {
          "internalType": "address",
          "name": "prosumer",
          "type": "address"
        },
        {
          "internalType": "uint256",
          "name": "energyAmount",
          "type": "uint256"
        },
        {
          "internalType": "uint256",
          "name": "minPrice",
          "type": "uint256"
        },
        {
          "internalType": "enum EnergyTrading.TradeStatus",
          "name": "status",
          "type": "uint8"
        },
        {
          "internalType": "address",
          "name": "highestBidder",
          "type": "address"
        },
        {
          "internalType": "uint256",
          "name": "highestBid",
          "type": "uint256"
        },
        {
          "internalType": "address",
          "name": "secondHighestBidder",
          "type": "address"
        },
        {
          "internalType": "uint256",
          "name": "secondHighestBid",
          "type": "uint256"
        },
        {
          "internalType": "uint256",
          "name": "auctionEnd",
          "type": "uint256"
        },
        {
          "internalType": "bool",
          "name": "isScheduled",
          "type": "bool"
        }
      ],
      "stateMutability": "view",
      "type": "function"
    },
    {
      "inputs": [
        {
          "internalType": "uint256",
          "name": "_listingId",
          "type": "uint256"
        }
      ],
      "name": "placeBid",
      "outputs": [],
      "stateMutability": "payable",
      "type": "function"
    },
    {
      "inputs": [
        {
          "internalType": "uint256",
          "name": "_energyAmount",
          "type": "uint256"
        },
        {
          "internalType": "uint256",
          "name": "_minPrice",
          "type": "uint256"
        },
        {
          "internalType": "uint256",
          "name": "_auctionDuration",
          "type": "uint256"
        }
      ],
      "name": "postEnergy",
      "outputs": [],
      "stateMutability": "nonpayable",
      "type": "function"
    },
    {
      "inputs": [
        {
          "internalType": "address",
          "name": "",
          "type": "address"
        },
        {
          "internalType": "uint256",
          "name": "",
          "type": "uint256"
        }
      ],
      "name": "prosumerListings",
      "outputs": [
        {
          "internalType": "uint256",
          "name": "",
          "type": "uint256"
        }
      ],
      "stateMutability": "view",
      "type": "function"
    },
    {
      "inputs": [
        {
          "internalType": "enum EnergyTrading.Role",
          "name": "_role",
          "type": "uint8"
        },
        {
          "internalType": "string",
          "name": "_hardwareId",
          "type": "string"
        }
      ],
      "name": "registerUser",
      "outputs": [],
      "stateMutability": "nonpayable",
      "type": "function"
    },
    {
      "inputs": [],
      "name": "snipeTimeExtension",
      "outputs": [
        {
          "internalType": "uint256",
          "name": "",
          "type": "uint256"
        }
      ],
      "stateMutability": "view",
      "type": "function"
    },
    {
      "inputs": [
        {
          "internalType": "uint256",
          "name": "_amount",
          "type": "uint256"
        }
      ],
      "name": "updateStoredEnergy",
      "outputs": [],
      "stateMutability": "nonpayable",
      "type": "function"
    },
    {
      "inputs": [
        {
          "internalType": "address",
          "name": "",
          "type": "address"
        },
        {
          "internalType": "uint256",
          "name": "",
          "type": "uint256"
        }
      ],
      "name": "userBids",
      "outputs": [
        {
          "internalType": "uint256",
          "name": "",
          "type": "uint256"
        }
      ],
      "stateMutability": "view",
      "type": "function"
    },
    {
      "inputs": [
        {
          "internalType": "address",
          "name": "",
          "type": "address"
        }
      ],
      "name": "users",
      "outputs": [
        {
          "internalType": "enum EnergyTrading.Role",
          "name": "role",
          "type": "uint8"
        },
        {
          "internalType": "uint256",
          "name": "reputation",
          "type": "uint256"
        },
        {
          "internalType": "uint256",
          "name": "storedEnergy",
          "type": "uint256"
        },
        {
          "internalType": "string",
          "name": "hardwareId",
          "type": "string"
        }
      ],
      "stateMutability": "view",
      "type": "function"
    }
  ],
  "bytecode": "0x6080604052607860005534801561001557600080fd5b50613dd4806100256000396000f3fe6080604052600436106101085760003560e01c80639979ef4511610095578063d29bcc5c11610064578063d29bcc5c14610382578063d54ec326146103ab578063d58c71a5146103e8578063de74e57b14610411578063ebc25fa61461045857610108565b80639979ef45146102d2578063a87430ba146102ee578063a9b07c261461032e578063bafb8a981461035957610108565b8063317a2748116100dc578063317a2748146101c7578063473906501461020457806380f4c9ff1461022f57806396ec50c31461025857806397eb08a21461029557610108565b80623beca01461010d57806302416b2914610138578063093e605a1461017557806313a8480d1461019e575b600080fd5b34801561011957600080fd5b50610122610495565b60405161012f9190612ded565b60405180910390f35b34801561014457600080fd5b5061015f600480360381019061015a9190612e4f565b6107cf565b60405161016c9190612ded565b60405180910390f35b34801561018157600080fd5b5061019c60048036038101906101979190612ea8565b610d23565b005b3480156101aa57600080fd5b506101c560048036038101906101c09190612f0f565b610f70565b005b3480156101d357600080fd5b506101ee60048036038101906101e99190612f62565b611330565b6040516101fb9190612fb1565b60405180910390f35b34801561021057600080fd5b50610219611361565b6040516102269190612fb1565b60405180910390f35b34801561023b57600080fd5b5061025660048036038101906102519190612fcc565b611367565b005b34801561026457600080fd5b5061027f600480360381019061027a9190612f62565b6114b5565b60405161028c9190612fb1565b60405180910390f35b3480156102a157600080fd5b506102bc60048036038101906102b79190612e4f565b6114e6565b6040516102c99190612fb1565b60405180910390f35b6102ec60048036038101906102e79190612fcc565b611532565b005b3480156102fa57600080fd5b5061031560048036038101906103109190612e4f565b611bb8565b60405161032594939291906130d1565b60405180910390f35b34801561033a57600080fd5b50610343611c7d565b6040516103509190612fb1565b60405180910390f35b34801561036557600080fd5b50610380600480360381019061037b9190612fcc565b611c83565b005b34801561038e57600080fd5b506103a960048036038101906103a49190613277565b611ed9565b005b3480156103b757600080fd5b506103d260048036038101906103cd9190612e4f565b6120b4565b6040516103df91906132d3565b60405180910390f35b3480156103f457600080fd5b5061040f600480360381019061040a9190612fcc565b612188565b005b34801561041d57600080fd5b5061043860048036038101906104339190612fcc565b61244e565b60405161044f9b9a99989796959493929190613322565b60405180910390f35b34801561046457600080fd5b5061047f600480360381019061047a9190612e4f565b612522565b60405161048c9190612ded565b60405180910390f35b6060600080600190505b600554811161051957600060048111156104bc576104bb612bf6565b5b6002600083815260200190815260200160002060040160009054906101000a900460ff1660048111156104f2576104f1612bf6565b5b03610506578180610502906133fc565b9250505b8080610511906133fc565b91505061049f565b5060008167ffffffffffffffff8111156105365761053561314c565b5b60405190808252806020026020018201604052801561056f57816020015b61055c612ac0565b8152602001906001900390816105545790505b509050600080600190505b60055481116107c5576000600481111561059757610596612bf6565b5b6002600083815260200190815260200160002060040160009054906101000a900460ff1660048111156105cd576105cc612bf6565b5b036107b2576002600082815260200190815260200160002060405180610160016040529081600082015481526020016001820160009054906101000a900473ffffffffffffffffffffffffffffffffffffffff1673ffffffffffffffffffffffffffffffffffffffff1673ffffffffffffffffffffffffffffffffffffffff16815260200160028201548152602001600382015481526020016004820160009054906101000a900460ff16600481111561068a57610689612bf6565b5b600481111561069c5761069b612bf6565b5b81526020016004820160019054906101000a900473ffffffffffffffffffffffffffffffffffffffff1673ffffffffffffffffffffffffffffffffffffffff1673ffffffffffffffffffffffffffffffffffffffff168152602001600582015481526020016006820160009054906101000a900473ffffffffffffffffffffffffffffffffffffffff1673ffffffffffffffffffffffffffffffffffffffff1673ffffffffffffffffffffffffffffffffffffffff16815260200160078201548152602001600882015481526020016009820160009054906101000a900460ff16151515158152505083838151811061079857610797613444565b5b602002602001018190525081806107ae906133fc565b9250505b80806107bd906133fc565b91505061057a565b5081935050505090565b60606000805b600360008573ffffffffffffffffffffffffffffffffffffffff1673ffffffffffffffffffffffffffffffffffffffff1681526020019081526020016000208054905081101561095f576000600360008673ffffffffffffffffffffffffffffffffffffffff1673ffffffffffffffffffffffffffffffffffffffff168152602001908152602001600020828154811061087257610871613444565b5b906000526020600020015490508473ffffffffffffffffffffffffffffffffffffffff166002600083815260200190815260200160002060010160009054906101000a900473ffffffffffffffffffffffffffffffffffffffff1673ffffffffffffffffffffffffffffffffffffffff1614801561093757506004808111156108fe576108fd612bf6565b5b6002600083815260200190815260200160002060040160009054906101000a900460ff16600481111561093457610933612bf6565b5b14155b1561094b578280610947906133fc565b9350505b508080610957906133fc565b9150506107d5565b5060008167ffffffffffffffff81111561097c5761097b61314c565b5b6040519080825280602002602001820160405280156109b557816020015b6109a2612ac0565b81526020019060019003908161099a5790505b5090506000805b600360008773ffffffffffffffffffffffffffffffffffffffff1673ffffffffffffffffffffffffffffffffffffffff16815260200190815260200160002080549050811015610d17576000600360008873ffffffffffffffffffffffffffffffffffffffff1673ffffffffffffffffffffffffffffffffffffffff1681526020019081526020016000208281548110610a5957610a58613444565b5b906000526020600020015490508673ffffffffffffffffffffffffffffffffffffffff166002600083815260200190815260200160002060010160009054906101000a900473ffffffffffffffffffffffffffffffffffffffff1673ffffffffffffffffffffffffffffffffffffffff16148015610b1e5750600480811115610ae557610ae4612bf6565b5b6002600083815260200190815260200160002060040160009054906101000a900460ff166004811115610b1b57610b1a612bf6565b5b14155b15610d03576002600082815260200190815260200160002060405180610160016040529081600082015481526020016001820160009054906101000a900473ffffffffffffffffffffffffffffffffffffffff1673ffffffffffffffffffffffffffffffffffffffff1673ffffffffffffffffffffffffffffffffffffffff16815260200160028201548152602001600382015481526020016004820160009054906101000a900460ff166004811115610bdb57610bda612bf6565b5b6004811115610bed57610bec612bf6565b5b81526020016004820160019054906101000a900473ffffffffffffffffffffffffffffffffffffffff1673ffffffffffffffffffffffffffffffffffffffff1673ffffffffffffffffffffffffffffffffffffffff168152602001600582015481526020016006820160009054906101000a900473ffffffffffffffffffffffffffffffffffffffff1673ffffffffffffffffffffffffffffffffffffffff1673ffffffffffffffffffffffffffffffffffffffff16815260200160078201548152602001600882015481526020016009820160009054906101000a900460ff161515151581525050848481518110610ce957610ce8613444565b5b60200260200101819052508280610cff906133fc565b9350505b508080610d0f906133fc565b9150506109bc565b50819350505050919050565b60016002811115610d3757610d36612bf6565b5b600160003373ffffffffffffffffffffffffffffffffffffffff1673ffffffffffffffffffffffffffffffffffffffff16815260200190815260200160002060000160009054906101000a900460ff166002811115610d9957610d98612bf6565b5b14610dd9576040517f08c379a0000000000000000000000000000000000000000000000000000000008152600401610dd0906134bf565b60405180910390fd5b60006002600086815260200190815260200160002090503373ffffffffffffffffffffffffffffffffffffffff168160010160009054906101000a900473ffffffffffffffffffffffffffffffffffffffff1673ffffffffffffffffffffffffffffffffffffffff1614610e82576040517f08c379a0000000000000000000000000000000000000000000000000000000008152600401610e799061352b565b60405180910390fd5b60006004811115610e9657610e95612bf6565b5b8160040160009054906101000a900460ff166004811115610eba57610eb9612bf6565b5b14610efa576040517f08c379a0000000000000000000000000000000000000000000000000000000008152600401610ef190613597565b60405180910390fd5b8381600201819055508281600301819055508181600801819055503373ffffffffffffffffffffffffffffffffffffffff167fead1643f76a5473362f901e6cc9172efc41df1d5cf0983cf69f56eefb2e2fdf786868686604051610f6194939291906135b7565b60405180910390a25050505050565b60016002811115610f8457610f83612bf6565b5b600160003373ffffffffffffffffffffffffffffffffffffffff1673ffffffffffffffffffffffffffffffffffffffff16815260200190815260200160002060000160009054906101000a900460ff166002811115610fe657610fe5612bf6565b5b14611026576040517f08c379a000000000000000000000000000000000000000000000000000000000815260040161101d906134bf565b60405180910390fd5b60056000815480929190611039906133fc565b919050555060405180610160016040528060055481526020013373ffffffffffffffffffffffffffffffffffffffff1681526020018481526020018381526020016000600481111561108e5761108d612bf6565b5b8152602001600073ffffffffffffffffffffffffffffffffffffffff16815260200160008152602001600073ffffffffffffffffffffffffffffffffffffffff1681526020016000815260200182426110e791906135fc565b8152602001600015158152506002600060055481526020019081526020016000206000820151816000015560208201518160010160006101000a81548173ffffffffffffffffffffffffffffffffffffffff021916908373ffffffffffffffffffffffffffffffffffffffff160217905550604082015181600201556060820151816003015560808201518160040160006101000a81548160ff0219169083600481111561119857611197612bf6565b5b021790555060a08201518160040160016101000a81548173ffffffffffffffffffffffffffffffffffffffff021916908373ffffffffffffffffffffffffffffffffffffffff16021790555060c0820151816005015560e08201518160060160006101000a81548173ffffffffffffffffffffffffffffffffffffffff021916908373ffffffffffffffffffffffffffffffffffffffff160217905550610100820151816007015561012082015181600801556101408201518160090160006101000a81548160ff021916908315150217905550905050600360003373ffffffffffffffffffffffffffffffffffffffff1673ffffffffffffffffffffffffffffffffffffffff16815260200190815260200160002060055490806001815401808255809150506001900390600052602060002001600090919091909150553373ffffffffffffffffffffffffffffffffffffffff167fa6f24ff0819c36475b27327ddde99f8b25541733ea490efdc0904d604ac6d63e600554858560405161132393929190613630565b60405180910390a2505050565b6003602052816000526040600020818154811061134c57600080fd5b90600052602060002001600091509150505481565b60005481565b6001600281111561137b5761137a612bf6565b5b600160003373ffffffffffffffffffffffffffffffffffffffff1673ffffffffffffffffffffffffffffffffffffffff16815260200190815260200160002060000160009054906101000a900460ff1660028111156113dd576113dc612bf6565b5b1461141d576040517f08c379a0000000000000000000000000000000000000000000000000000000008152600401611414906134bf565b60405180910390fd5b80600160003373ffffffffffffffffffffffffffffffffffffffff1673ffffffffffffffffffffffffffffffffffffffff168152602001908152602001600020600201819055503373ffffffffffffffffffffffffffffffffffffffff167fba30b9ce718c30383f3bd270ac43c8dbc9595f281eeb98dc5fef923ec266a6e5826040516114aa9190612fb1565b60405180910390a250565b600460205281600052604060002081815481106114d157600080fd5b90600052602060002001600091509150505481565b6000600160008373ffffffffffffffffffffffffffffffffffffffff1673ffffffffffffffffffffffffffffffffffffffff168152602001908152602001600020600201549050919050565b60028081111561154557611544612bf6565b5b600160003373ffffffffffffffffffffffffffffffffffffffff1673ffffffffffffffffffffffffffffffffffffffff16815260200190815260200160002060000160009054906101000a900460ff1660028111156115a7576115a6612bf6565b5b146115e7576040517f08c379a00000000000000000000000000000000000000000000000000000000081526004016115de906136b3565b60405180910390fd5b60006002600083815260200190815260200160002090506000600481111561161257611611612bf6565b5b8160040160009054906101000a900460ff16600481111561163657611635612bf6565b5b14611676576040517f08c379a000000000000000000000000000000000000000000000000000000000815260040161166d9061371f565b60405180910390fd5b806008015442106116bc576040517f08c379a00000000000000000000000000000000000000000000000000000000081526004016116b39061378b565b60405180910390fd5b600034116116ff576040517f08c379a00000000000000000000000000000000000000000000000000000000081526004016116f6906137f7565b60405180910390fd5b8060010160009054906101000a900473ffffffffffffffffffffffffffffffffffffffff1673ffffffffffffffffffffffffffffffffffffffff163373ffffffffffffffffffffffffffffffffffffffff1603611791576040517f08c379a000000000000000000000000000000000000000000000000000000000815260040161178890613863565b60405180910390fd5b600073ffffffffffffffffffffffffffffffffffffffff168160040160019054906101000a900473ffffffffffffffffffffffffffffffffffffffff1673ffffffffffffffffffffffffffffffffffffffff161415801561184157508060040160019054906101000a900473ffffffffffffffffffffffffffffffffffffffff1673ffffffffffffffffffffffffffffffffffffffff163373ffffffffffffffffffffffffffffffffffffffff16145b15611866573481600501600082825461185a91906135fc565b92505081905550611b29565b600073ffffffffffffffffffffffffffffffffffffffff168160040160019054906101000a900473ffffffffffffffffffffffffffffffffffffffff1673ffffffffffffffffffffffffffffffffffffffff161461192e578060040160019054906101000a900473ffffffffffffffffffffffffffffffffffffffff1673ffffffffffffffffffffffffffffffffffffffff166108fc82600501549081150290604051600060405180830381858888f1935050505015801561192c573d6000803e3d6000fd5b505b8060040160019054906101000a900473ffffffffffffffffffffffffffffffffffffffff168160060160006101000a81548173ffffffffffffffffffffffffffffffffffffffff021916908373ffffffffffffffffffffffffffffffffffffffff16021790555080600501548160070181905550338160040160016101000a81548173ffffffffffffffffffffffffffffffffffffffff021916908373ffffffffffffffffffffffffffffffffffffffff1602179055503481600501819055506000805b600460003373ffffffffffffffffffffffffffffffffffffffff1673ffffffffffffffffffffffffffffffffffffffff16815260200190815260200160002080549050811015611aba5783600460003373ffffffffffffffffffffffffffffffffffffffff1673ffffffffffffffffffffffffffffffffffffffff1681526020019081526020016000208281548110611a8e57611a8d613444565b5b906000526020600020015403611aa75760019150611aba565b8080611ab2906133fc565b9150506119f2565b5080611b2757600460003373ffffffffffffffffffffffffffffffffffffffff1673ffffffffffffffffffffffffffffffffffffffff1681526020019081526020016000208390806001815401808255809150506001900390600052602060002001600090919091909150555b505b6000548160080154611b3b9190613883565b421115611b6057600054816008016000828254611b5891906135fc565b925050819055505b3373ffffffffffffffffffffffffffffffffffffffff167f0e54eff26401bf69b81b26f60bd85ef47f5d85275c1d268d84f68d6897431c47838360050154604051611bac9291906138b7565b60405180910390a25050565b60016020528060005260406000206000915090508060000160009054906101000a900460ff1690806001015490806002015490806003018054611bfa9061390f565b80601f0160208091040260200160405190810160405280929190818152602001828054611c269061390f565b8015611c735780601f10611c4857610100808354040283529160200191611c73565b820191906000526020600020905b815481529060010190602001808311611c5657829003601f168201915b5050505050905084565b60055481565b60016002811115611c9757611c96612bf6565b5b600160003373ffffffffffffffffffffffffffffffffffffffff1673ffffffffffffffffffffffffffffffffffffffff16815260200190815260200160002060000160009054906101000a900460ff166002811115611cf957611cf8612bf6565b5b14611d39576040517f08c379a0000000000000000000000000000000000000000000000000000000008152600401611d30906134bf565b60405180910390fd5b60006002600083815260200190815260200160002090503373ffffffffffffffffffffffffffffffffffffffff168160010160009054906101000a900473ffffffffffffffffffffffffffffffffffffffff1673ffffffffffffffffffffffffffffffffffffffff1614611de2576040517f08c379a0000000000000000000000000000000000000000000000000000000008152600401611dd99061352b565b60405180910390fd5b60006004811115611df657611df5612bf6565b5b8160040160009054906101000a900460ff166004811115611e1a57611e19612bf6565b5b14611e5a576040517f08c379a0000000000000000000000000000000000000000000000000000000008152600401611e519061398c565b60405180910390fd5b60048160040160006101000a81548160ff02191690836004811115611e8257611e81612bf6565b5b02179055503373ffffffffffffffffffffffffffffffffffffffff167fae60abb1ab7ec39c6b3a4d0da60ec937caa3f4b41f167cef3fa8a0c93dfcd65483604051611ecd9190612fb1565b60405180910390a25050565b60006002811115611eed57611eec612bf6565b5b600160003373ffffffffffffffffffffffffffffffffffffffff1673ffffffffffffffffffffffffffffffffffffffff16815260200190815260200160002060000160009054906101000a900460ff166002811115611f4f57611f4e612bf6565b5b14611f8f576040517f08c379a0000000000000000000000000000000000000000000000000000000008152600401611f86906139f8565b60405180910390fd5b6040518060800160405280836002811115611fad57611fac612bf6565b5b8152602001600081526020016000815260200182815250600160003373ffffffffffffffffffffffffffffffffffffffff1673ffffffffffffffffffffffffffffffffffffffff16815260200190815260200160002060008201518160000160006101000a81548160ff0219169083600281111561202e5761202d612bf6565b5b02179055506020820151816001015560408201518160020155606082015181600301908161205c9190613bc4565b509050503373ffffffffffffffffffffffffffffffffffffffff167f1767614f7eedfdf25899be48f914df3e49a6da6d1c97cfc0eccef719aa6b8bcb83836040516120a8929190613c96565b60405180910390a25050565b6060600160008373ffffffffffffffffffffffffffffffffffffffff1673ffffffffffffffffffffffffffffffffffffffff16815260200190815260200160002060030180546121039061390f565b80601f016020809104026020016040519081016040528092919081815260200182805461212f9061390f565b801561217c5780601f106121515761010080835404028352916020019161217c565b820191906000526020600020905b81548152906001019060200180831161215f57829003601f168201915b50505050509050919050565b6001600281111561219c5761219b612bf6565b5b600160003373ffffffffffffffffffffffffffffffffffffffff1673ffffffffffffffffffffffffffffffffffffffff16815260200190815260200160002060000160009054906101000a900460ff1660028111156121fe576121fd612bf6565b5b1461223e576040517f08c379a0000000000000000000000000000000000000000000000000000000008152600401612235906134bf565b60405180910390fd5b60006002600083815260200190815260200160002090506000600481111561226957612268612bf6565b5b8160040160009054906101000a900460ff16600481111561228d5761228c612bf6565b5b146122cd576040517f08c379a00000000000000000000000000000000000000000000000000000000081526004016122c490613d12565b60405180910390fd5b600073ffffffffffffffffffffffffffffffffffffffff168160040160019054906101000a900473ffffffffffffffffffffffffffffffffffffffff1673ffffffffffffffffffffffffffffffffffffffff1603612360576040517f08c379a000000000000000000000000000000000000000000000000000000000815260040161235790613d7e565b60405180910390fd5b60028160040160006101000a81548160ff0219169083600481111561238857612387612bf6565b5b02179055503373ffffffffffffffffffffffffffffffffffffffff166108fc82600501549081150290604051600060405180830381858888f193505050501580156123d7573d6000803e3d6000fd5b508060040160019054906101000a900473ffffffffffffffffffffffffffffffffffffffff1673ffffffffffffffffffffffffffffffffffffffff167f35848b3bf77286fb72d5ce82c3fab7eca41dfcb7c17391dcf1b8a51c33e60001836040516124429190612fb1565b60405180910390a25050565b60026020528060005260406000206000915090508060000154908060010160009054906101000a900473ffffffffffffffffffffffffffffffffffffffff16908060020154908060030154908060040160009054906101000a900460ff16908060040160019054906101000a900473ffffffffffffffffffffffffffffffffffffffff16908060050154908060060160009054906101000a900473ffffffffffffffffffffffffffffffffffffffff16908060070154908060080154908060090160009054906101000a900460ff1690508b565b60606000805b600460008573ffffffffffffffffffffffffffffffffffffffff1673ffffffffffffffffffffffffffffffffffffffff168152602001908152602001600020805490508110156126d7576000600460008673ffffffffffffffffffffffffffffffffffffffff1673ffffffffffffffffffffffffffffffffffffffff16815260200190815260200160002082815481106125c5576125c4613444565b5b9060005260206000200154905060008111801561264357508473ffffffffffffffffffffffffffffffffffffffff166002600083815260200190815260200160002060040160019054906101000a900473ffffffffffffffffffffffffffffffffffffffff1673ffffffffffffffffffffffffffffffffffffffff16145b806126af57508473ffffffffffffffffffffffffffffffffffffffff166002600083815260200190815260200160002060060160009054906101000a900473ffffffffffffffffffffffffffffffffffffffff1673ffffffffffffffffffffffffffffffffffffffff16145b156126c35782806126bf906133fc565b9350505b5080806126cf906133fc565b915050612528565b5060008167ffffffffffffffff8111156126f4576126f361314c565b5b60405190808252806020026020018201604052801561272d57816020015b61271a612ac0565b8152602001906001900390816127125790505b5090506000805b600460008773ffffffffffffffffffffffffffffffffffffffff1673ffffffffffffffffffffffffffffffffffffffff16815260200190815260200160002080549050811015612ab4576000600460008873ffffffffffffffffffffffffffffffffffffffff1673ffffffffffffffffffffffffffffffffffffffff16815260200190815260200160002082815481106127d1576127d0613444565b5b906000526020600020015490506000811180156128bb57508673ffffffffffffffffffffffffffffffffffffffff166002600083815260200190815260200160002060040160019054906101000a900473ffffffffffffffffffffffffffffffffffffffff1673ffffffffffffffffffffffffffffffffffffffff1614806128ba57508673ffffffffffffffffffffffffffffffffffffffff166002600083815260200190815260200160002060060160009054906101000a900473ffffffffffffffffffffffffffffffffffffffff1673ffffffffffffffffffffffffffffffffffffffff16145b5b15612aa0576002600082815260200190815260200160002060405180610160016040529081600082015481526020016001820160009054906101000a900473ffffffffffffffffffffffffffffffffffffffff1673ffffffffffffffffffffffffffffffffffffffff1673ffffffffffffffffffffffffffffffffffffffff16815260200160028201548152602001600382015481526020016004820160009054906101000a900460ff16600481111561297857612977612bf6565b5b600481111561298a57612989612bf6565b5b81526020016004820160019054906101000a900473ffffffffffffffffffffffffffffffffffffffff1673ffffffffffffffffffffffffffffffffffffffff1673ffffffffffffffffffffffffffffffffffffffff168152602001600582015481526020016006820160009054906101000a900473ffffffffffffffffffffffffffffffffffffffff1673ffffffffffffffffffffffffffffffffffffffff1673ffffffffffffffffffffffffffffffffffffffff16815260200160078201548152602001600882015481526020016009820160009054906101000a900460ff161515151581525050848481518110612a8657612a85613444565b5b60200260200101819052508280612a9c906133fc565b9350505b508080612aac906133fc565b915050612734565b50819350505050919050565b60405180610160016040528060008152602001600073ffffffffffffffffffffffffffffffffffffffff168152602001600081526020016000815260200160006004811115612b1257612b11612bf6565b5b8152602001600073ffffffffffffffffffffffffffffffffffffffff16815260200160008152602001600073ffffffffffffffffffffffffffffffffffffffff16815260200160008152602001600081526020016000151581525090565b600081519050919050565b600082825260208201905092915050565b6000819050602082019050919050565b6000819050919050565b612baf81612b9c565b82525050565b600073ffffffffffffffffffffffffffffffffffffffff82169050919050565b6000612be082612bb5565b9050919050565b612bf081612bd5565b82525050565b7f4e487b7100000000000000000000000000000000000000000000000000000000600052602160045260246000fd5b60058110612c3657612c35612bf6565b5b50565b6000819050612c4782612c25565b919050565b6000612c5782612c39565b9050919050565b612c6781612c4c565b82525050565b60008115159050919050565b612c8281612c6d565b82525050565b61016082016000820151612c9f6000850182612ba6565b506020820151612cb26020850182612be7565b506040820151612cc56040850182612ba6565b506060820151612cd86060850182612ba6565b506080820151612ceb6080850182612c5e565b5060a0820151612cfe60a0850182612be7565b5060c0820151612d1160c0850182612ba6565b5060e0820151612d2460e0850182612be7565b50610100820151612d39610100850182612ba6565b50610120820151612d4e610120850182612ba6565b50610140820151612d63610140850182612c79565b50505050565b6000612d758383612c88565b6101608301905092915050565b6000602082019050919050565b6000612d9a82612b70565b612da48185612b7b565b9350612daf83612b8c565b8060005b83811015612de0578151612dc78882612d69565b9750612dd283612d82565b925050600181019050612db3565b5085935050505092915050565b60006020820190508181036000830152612e078184612d8f565b905092915050565b6000604051905090565b600080fd5b600080fd5b612e2c81612bd5565b8114612e3757600080fd5b50565b600081359050612e4981612e23565b92915050565b600060208284031215612e6557612e64612e19565b5b6000612e7384828501612e3a565b91505092915050565b612e8581612b9c565b8114612e9057600080fd5b50565b600081359050612ea281612e7c565b92915050565b60008060008060808587031215612ec257612ec1612e19565b5b6000612ed087828801612e93565b9450506020612ee187828801612e93565b9350506040612ef287828801612e93565b9250506060612f0387828801612e93565b91505092959194509250565b600080600060608486031215612f2857612f27612e19565b5b6000612f3686828701612e93565b9350506020612f4786828701612e93565b9250506040612f5886828701612e93565b9150509250925092565b60008060408385031215612f7957612f78612e19565b5b6000612f8785828601612e3a565b9250506020612f9885828601612e93565b9150509250929050565b612fab81612b9c565b82525050565b6000602082019050612fc66000830184612fa2565b92915050565b600060208284031215612fe257612fe1612e19565b5b6000612ff084828501612e93565b91505092915050565b6003811061300a57613009612bf6565b5b50565b600081905061301b82612ff9565b919050565b600061302b8261300d565b9050919050565b61303b81613020565b82525050565b600081519050919050565b600082825260208201905092915050565b60005b8381101561307b578082015181840152602081019050613060565b60008484015250505050565b6000601f19601f8301169050919050565b60006130a382613041565b6130ad818561304c565b93506130bd81856020860161305d565b6130c681613087565b840191505092915050565b60006080820190506130e66000830187613032565b6130f36020830186612fa2565b6131006040830185612fa2565b81810360608301526131128184613098565b905095945050505050565b6003811061312a57600080fd5b50565b60008135905061313c8161311d565b92915050565b600080fd5b600080fd5b7f4e487b7100000000000000000000000000000000000000000000000000000000600052604160045260246000fd5b61318482613087565b810181811067ffffffffffffffff821117156131a3576131a261314c565b5b80604052505050565b60006131b6612e0f565b90506131c2828261317b565b919050565b600067ffffffffffffffff8211156131e2576131e161314c565b5b6131eb82613087565b9050602081019050919050565b82818337600083830152505050565b600061321a613215846131c7565b6131ac565b90508281526020810184848401111561323657613235613147565b5b6132418482856131f8565b509392505050565b600082601f83011261325e5761325d613142565b5b813561326e848260208601613207565b91505092915050565b6000806040838503121561328e5761328d612e19565b5b600061329c8582860161312d565b925050602083013567ffffffffffffffff8111156132bd576132bc612e1e565b5b6132c985828601613249565b9150509250929050565b600060208201905081810360008301526132ed8184613098565b905092915050565b6132fe81612bd5565b82525050565b61330d81612c4c565b82525050565b61331c81612c6d565b82525050565b600061016082019050613338600083018e612fa2565b613345602083018d6132f5565b613352604083018c612fa2565b61335f606083018b612fa2565b61336c608083018a613304565b61337960a08301896132f5565b61338660c0830188612fa2565b61339360e08301876132f5565b6133a1610100830186612fa2565b6133af610120830185612fa2565b6133bd610140830184613313565b9c9b505050505050505050505050565b7f4e487b7100000000000000000000000000000000000000000000000000000000600052601160045260246000fd5b600061340782612b9c565b91507fffffffffffffffffffffffffffffffffffffffffffffffffffffffffffffffff8203613439576134386133cd565b5b600182019050919050565b7f4e487b7100000000000000000000000000000000000000000000000000000000600052603260045260246000fd5b7f4e6f74206120726567697374657265642070726f73756d657200000000000000600082015250565b60006134a960198361304c565b91506134b482613473565b602082019050919050565b600060208201905081810360008301526134d88161349c565b9050919050565b7f4e6f7420746865206f776e6572206f6620746865206c697374696e6700000000600082015250565b6000613515601c8361304c565b9150613520826134df565b602082019050919050565b6000602082019050818103600083015261354481613508565b9050919050565b7f43616e6e6f742065646974206120636c6f736564206c697374696e6700000000600082015250565b6000613581601c8361304c565b915061358c8261354b565b602082019050919050565b600060208201905081810360008301526135b081613574565b9050919050565b60006080820190506135cc6000830187612fa2565b6135d96020830186612fa2565b6135e66040830185612fa2565b6135f36060830184612fa2565b95945050505050565b600061360782612b9c565b915061361283612b9c565b925082820190508082111561362a576136296133cd565b5b92915050565b60006060820190506136456000830186612fa2565b6136526020830185612fa2565b61365f6040830184612fa2565b949350505050565b7f4e6f742061207265676973746572656420636f6e73756d657200000000000000600082015250565b600061369d60198361304c565b91506136a882613667565b602082019050919050565b600060208201905081810360008301526136cc81613690565b9050919050565b7f4c697374696e67206e6f74206f70656e00000000000000000000000000000000600082015250565b600061370960108361304c565b9150613714826136d3565b602082019050919050565b60006020820190508181036000830152613738816136fc565b9050919050565b7f41756374696f6e20656e64656400000000000000000000000000000000000000600082015250565b6000613775600d8361304c565b91506137808261373f565b602082019050919050565b600060208201905081810360008301526137a481613768565b9050919050565b7f426964206d7573742062652067726561746572207468616e2030000000000000600082015250565b60006137e1601a8361304c565b91506137ec826137ab565b602082019050919050565b60006020820190508181036000830152613810816137d4565b9050919050565b7f43616e6e6f7420626964206f6e20796f7572206f776e206c697374696e670000600082015250565b600061384d601e8361304c565b915061385882613817565b602082019050919050565b6000602082019050818103600083015261387c81613840565b9050919050565b600061388e82612b9c565b915061389983612b9c565b92508282039050818111156138b1576138b06133cd565b5b92915050565b60006040820190506138cc6000830185612fa2565b6138d96020830184612fa2565b9392505050565b7f4e487b7100000000000000000000000000000000000000000000000000000000600052602260045260246000fd5b6000600282049050600182168061392757607f821691505b60208210810361393a576139396138e0565b5b50919050565b7f43616e6e6f742064656c657465206120636c6f736564206c697374696e670000600082015250565b6000613976601e8361304c565b915061398182613940565b602082019050919050565b600060208201905081810360008301526139a581613969565b9050919050565b7f5573657220616c72656164792072656769737465726564000000000000000000600082015250565b60006139e260178361304c565b91506139ed826139ac565b602082019050919050565b60006020820190508181036000830152613a11816139d5565b9050919050565b60008190508160005260206000209050919050565b60006020601f8301049050919050565b600082821b905092915050565b600060088302613a7a7fffffffffffffffffffffffffffffffffffffffffffffffffffffffffffffffff82613a3d565b613a848683613a3d565b95508019841693508086168417925050509392505050565b6000819050919050565b6000613ac1613abc613ab784612b9c565b613a9c565b612b9c565b9050919050565b6000819050919050565b613adb83613aa6565b613aef613ae782613ac8565b848454613a4a565b825550505050565b600090565b613b04613af7565b613b0f818484613ad2565b505050565b5b81811015613b3357613b28600082613afc565b600181019050613b15565b5050565b601f821115613b7857613b4981613a18565b613b5284613a2d565b81016020851015613b61578190505b613b75613b6d85613a2d565b830182613b14565b50505b505050565b600082821c905092915050565b6000613b9b60001984600802613b7d565b1980831691505092915050565b6000613bb48383613b8a565b9150826002028217905092915050565b613bcd82613041565b67ffffffffffffffff811115613be657613be561314c565b5b613bf0825461390f565b613bfb828285613b37565b600060209050601f831160018114613c2e5760008415613c1c578287015190505b613c268582613ba8565b865550613c8e565b601f198416613c3c86613a18565b60005b82811015613c6457848901518255600182019150602085019450602081019050613c3f565b86831015613c815784890151613c7d601f891682613b8a565b8355505b6001600288020188555050505b505050505050565b6000604082019050613cab6000830185613032565b8181036020830152613cbd8184613098565b90509392505050565b7f5472616465206e6f74206f70656e000000000000000000000000000000000000600082015250565b6000613cfc600e8361304c565b9150613d0782613cc6565b602082019050919050565b60006020820190508181036000830152613d2b81613cef565b9050919050565b7f4e6f206269647320706c61636564000000000000000000000000000000000000600082015250565b6000613d68600e8361304c565b9150613d7382613d32565b602082019050919050565b60006020820190508181036000830152613d9781613d5b565b905091905056fea26469706673582212207b732eb7a5d8adc96514ddb9a9805fe5f36d842663e48229f378e55b2edfcb1f64736f6c63430008130033",
  "linkReferences": {},
  "deployedLinkReferences": {}
}