{
  "_format": "hh-sol-artifact-1",
  "contractName": "EnergyTrading",
  "sourceName": "contracts/EnergyTrading.sol",
  "abi": [
    {
      "anonymous": false,
      "inputs": [
        {
          "indexed": false,
          "internalType": "uint256",
          "name": "listingId",
          "type": "uint256"
        },
        {
          "indexed": true,
          "internalType": "address",
          "name": "consumer",
          "type": "address"
        },
        {
          "indexed": false,
          "internalType": "uint256",
          "name": "bidAmount",
          "type": "uint256"
        }
      ],
      "name": "BidPlaced",
      "type": "event"
    },
    {
      "anonymous": false,
      "inputs": [
        {
          "indexed": false,
          "internalType": "uint256",
          "name": "listingId",
          "type": "uint256"
        },
        {
          "indexed": true,
          "internalType": "address",
          "name": "prosumer",
          "type": "address"
        },
        {
          "indexed": false,
          "internalType": "uint256",
          "name": "energyAmount",
          "type": "uint256"
        },
        {
          "indexed": false,
          "internalType": "uint256",
          "name": "minPrice",
          "type": "uint256"
        },
        {
          "indexed": false,
          "internalType": "uint256",
          "name": "auctionEnd",
          "type": "uint256"
        }
      ],
      "name": "EnergyListingEdited",
      "type": "event"
    },
    {
      "anonymous": false,
      "inputs": [
        {
          "indexed": false,
          "internalType": "uint256",
          "name": "listingId",
          "type": "uint256"
        },
        {
          "indexed": true,
          "internalType": "address",
          "name": "prosumer",
          "type": "address"
        },
        {
          "indexed": false,
          "internalType": "uint256",
          "name": "energyAmount",
          "type": "uint256"
        },
        {
          "indexed": false,
          "internalType": "uint256",
          "name": "minPrice",
          "type": "uint256"
        }
      ],
      "name": "EnergyPosted",
      "type": "event"
    },
    {
      "anonymous": false,
      "inputs": [
        {
          "indexed": true,
          "internalType": "address",
          "name": "user",
          "type": "address"
        },
        {
          "indexed": false,
          "internalType": "enum EnergyTrading.Role",
          "name": "role",
          "type": "uint8"
        }
      ],
      "name": "Registered",
      "type": "event"
    },
    {
      "anonymous": false,
      "inputs": [
        {
          "indexed": false,
          "internalType": "uint256",
          "name": "listingId",
          "type": "uint256"
        },
        {
          "indexed": true,
          "internalType": "address",
          "name": "consumer",
          "type": "address"
        }
      ],
      "name": "TradeFinalized",
      "type": "event"
    },
    {
      "inputs": [
        {
          "internalType": "uint256",
          "name": "_listingId",
          "type": "uint256"
        }
      ],
      "name": "finalizeTrade",
      "outputs": [],
      "stateMutability": "nonpayable",
      "type": "function"
    },
    {
      "inputs": [],
      "name": "getAllActiveOffers",
      "outputs": [
        {
          "components": [
            {
              "internalType": "uint256",
              "name": "id",
              "type": "uint256"
            },
            {
              "internalType": "address",
              "name": "prosumer",
              "type": "address"
            },
            {
              "internalType": "uint256",
              "name": "energyAmount",
              "type": "uint256"
            },
            {
              "internalType": "uint256",
              "name": "minPrice",
              "type": "uint256"
            },
            {
              "internalType": "enum EnergyTrading.TradeStatus",
              "name": "status",
              "type": "uint8"
            },
            {
              "internalType": "address",
              "name": "highestBidder",
              "type": "address"
            },
            {
              "internalType": "uint256",
              "name": "highestBid",
              "type": "uint256"
            },
            {
              "internalType": "address",
              "name": "secondHighestBidder",
              "type": "address"
            },
            {
              "internalType": "uint256",
              "name": "secondHighestBid",
              "type": "uint256"
            },
            {
              "internalType": "uint256",
              "name": "auctionEnd",
              "type": "uint256"
            },
            {
              "internalType": "bool",
              "name": "isScheduled",
              "type": "bool"
            }
          ],
          "internalType": "struct EnergyTrading.EnergyListing[]",
          "name": "",
          "type": "tuple[]"
        }
      ],
      "stateMutability": "view",
      "type": "function"
    },
    {
      "inputs": [
        {
          "internalType": "address",
          "name": "prosumer",
          "type": "address"
        }
      ],
      "name": "getMyPosts",
      "outputs": [
        {
          "components": [
            {
              "internalType": "uint256",
              "name": "id",
              "type": "uint256"
            },
            {
              "internalType": "address",
              "name": "prosumer",
              "type": "address"
            },
            {
              "internalType": "uint256",
              "name": "energyAmount",
              "type": "uint256"
            },
            {
              "internalType": "uint256",
              "name": "minPrice",
              "type": "uint256"
            },
            {
              "internalType": "enum EnergyTrading.TradeStatus",
              "name": "status",
              "type": "uint8"
            },
            {
              "internalType": "address",
              "name": "highestBidder",
              "type": "address"
            },
            {
              "internalType": "uint256",
              "name": "highestBid",
              "type": "uint256"
            },
            {
              "internalType": "address",
              "name": "secondHighestBidder",
              "type": "address"
            },
            {
              "internalType": "uint256",
              "name": "secondHighestBid",
              "type": "uint256"
            },
            {
              "internalType": "uint256",
              "name": "auctionEnd",
              "type": "uint256"
            },
            {
              "internalType": "bool",
              "name": "isScheduled",
              "type": "bool"
            }
          ],
          "internalType": "struct EnergyTrading.EnergyListing[]",
          "name": "",
          "type": "tuple[]"
        }
      ],
      "stateMutability": "view",
      "type": "function"
    },
    {
      "inputs": [],
      "name": "listingCount",
      "outputs": [
        {
          "internalType": "uint256",
          "name": "",
          "type": "uint256"
        }
      ],
      "stateMutability": "view",
      "type": "function"
    },
    {
      "inputs": [
        {
          "internalType": "uint256",
          "name": "",
          "type": "uint256"
        }
      ],
      "name": "listings",
      "outputs": [
        {
          "internalType": "uint256",
          "name": "id",
          "type": "uint256"
        },
        {
          "internalType": "address",
          "name": "prosumer",
          "type": "address"
        },
        {
          "internalType": "uint256",
          "name": "energyAmount",
          "type": "uint256"
        },
        {
          "internalType": "uint256",
          "name": "minPrice",
          "type": "uint256"
        },
        {
          "internalType": "enum EnergyTrading.TradeStatus",
          "name": "status",
          "type": "uint8"
        },
        {
          "internalType": "address",
          "name": "highestBidder",
          "type": "address"
        },
        {
          "internalType": "uint256",
          "name": "highestBid",
          "type": "uint256"
        },
        {
          "internalType": "address",
          "name": "secondHighestBidder",
          "type": "address"
        },
        {
          "internalType": "uint256",
          "name": "secondHighestBid",
          "type": "uint256"
        },
        {
          "internalType": "uint256",
          "name": "auctionEnd",
          "type": "uint256"
        },
        {
          "internalType": "bool",
          "name": "isScheduled",
          "type": "bool"
        }
      ],
      "stateMutability": "view",
      "type": "function"
    },
    {
      "inputs": [
        {
          "internalType": "uint256",
          "name": "_listingId",
          "type": "uint256"
        }
      ],
      "name": "placeBid",
      "outputs": [],
      "stateMutability": "payable",
      "type": "function"
    },
    {
      "inputs": [
        {
          "internalType": "uint256",
          "name": "_energyAmount",
          "type": "uint256"
        },
        {
          "internalType": "uint256",
          "name": "_minPrice",
          "type": "uint256"
        },
        {
          "internalType": "uint256",
          "name": "_auctionDuration",
          "type": "uint256"
        }
      ],
      "name": "postEnergy",
      "outputs": [],
      "stateMutability": "nonpayable",
      "type": "function"
    },
    {
      "inputs": [
        {
          "internalType": "address",
          "name": "",
          "type": "address"
        },
        {
          "internalType": "uint256",
          "name": "",
          "type": "uint256"
        }
      ],
      "name": "prosumerListings",
      "outputs": [
        {
          "internalType": "uint256",
          "name": "",
          "type": "uint256"
        }
      ],
      "stateMutability": "view",
      "type": "function"
    },
    {
      "inputs": [
        {
          "internalType": "enum EnergyTrading.Role",
          "name": "_role",
          "type": "uint8"
        }
      ],
      "name": "registerUser",
      "outputs": [],
      "stateMutability": "nonpayable",
      "type": "function"
    },
    {
      "inputs": [],
      "name": "snipeTimeExtension",
      "outputs": [
        {
          "internalType": "uint256",
          "name": "",
          "type": "uint256"
        }
      ],
      "stateMutability": "view",
      "type": "function"
    },
    {
      "inputs": [
        {
          "internalType": "address",
          "name": "",
          "type": "address"
        },
        {
          "internalType": "uint256",
          "name": "",
          "type": "uint256"
        }
      ],
      "name": "userBids",
      "outputs": [
        {
          "internalType": "uint256",
          "name": "",
          "type": "uint256"
        }
      ],
      "stateMutability": "view",
      "type": "function"
    },
    {
      "inputs": [
        {
          "internalType": "address",
          "name": "",
          "type": "address"
        }
      ],
      "name": "users",
      "outputs": [
        {
          "internalType": "enum EnergyTrading.Role",
          "name": "role",
          "type": "uint8"
        },
        {
          "internalType": "uint256",
          "name": "reputation",
          "type": "uint256"
        },
        {
          "internalType": "uint256",
          "name": "storedEnergy",
          "type": "uint256"
        }
      ],
      "stateMutability": "view",
      "type": "function"
    }
  ],
  "bytecode": "0x6080604052607860005534801561001557600080fd5b5061268a806100256000396000f3fe6080604052600436106100a65760003560e01c806396ec50c31161006457806396ec50c3146101cd5780639979ef451461020a578063a87430ba14610226578063a9b07c2614610265578063d58c71a514610290578063de74e57b146102b9576100a6565b80623beca0146100ab57806302416b29146100d657806302b8c8cd1461011357806313a8480d1461013c578063317a27481461016557806347390650146101a2575b600080fd5b3480156100b757600080fd5b506100c0610300565b6040516100cd9190611d80565b60405180910390f35b3480156100e257600080fd5b506100fd60048036038101906100f89190611dd3565b61063a565b60405161010a9190611d80565b60405180910390f35b34801561011f57600080fd5b5061013a60048036038101906101359190611e25565b610ae6565b005b34801561014857600080fd5b50610163600480360381019061015e9190611e7e565b610ca2565b005b34801561017157600080fd5b5061018c60048036038101906101879190611ed1565b611062565b6040516101999190611f20565b60405180910390f35b3480156101ae57600080fd5b506101b7611093565b6040516101c49190611f20565b60405180910390f35b3480156101d957600080fd5b506101f460048036038101906101ef9190611ed1565b611099565b6040516102019190611f20565b60405180910390f35b610224600480360381019061021f9190611f3b565b6110ca565b005b34801561023257600080fd5b5061024d60048036038101906102489190611dd3565b61167c565b60405161025c93929190611fb0565b60405180910390f35b34801561027157600080fd5b5061027a6116b3565b6040516102879190611f20565b60405180910390f35b34801561029c57600080fd5b506102b760048036038101906102b29190611f3b565b6116b9565b005b3480156102c557600080fd5b506102e060048036038101906102db9190611f3b565b61197f565b6040516102f79b9a99989796959493929190612014565b60405180910390f35b6060600080600190505b6005548111610384576000600481111561032757610326611b89565b5b6002600083815260200190815260200160002060040160009054906101000a900460ff16600481111561035d5761035c611b89565b5b0361037157818061036d906120ee565b9250505b808061037c906120ee565b91505061030a565b5060008167ffffffffffffffff8111156103a1576103a0612136565b5b6040519080825280602002602001820160405280156103da57816020015b6103c7611a53565b8152602001906001900390816103bf5790505b509050600080600190505b6005548111610630576000600481111561040257610401611b89565b5b6002600083815260200190815260200160002060040160009054906101000a900460ff16600481111561043857610437611b89565b5b0361061d576002600082815260200190815260200160002060405180610160016040529081600082015481526020016001820160009054906101000a900473ffffffffffffffffffffffffffffffffffffffff1673ffffffffffffffffffffffffffffffffffffffff1673ffffffffffffffffffffffffffffffffffffffff16815260200160028201548152602001600382015481526020016004820160009054906101000a900460ff1660048111156104f5576104f4611b89565b5b600481111561050757610506611b89565b5b81526020016004820160019054906101000a900473ffffffffffffffffffffffffffffffffffffffff1673ffffffffffffffffffffffffffffffffffffffff1673ffffffffffffffffffffffffffffffffffffffff168152602001600582015481526020016006820160009054906101000a900473ffffffffffffffffffffffffffffffffffffffff1673ffffffffffffffffffffffffffffffffffffffff1673ffffffffffffffffffffffffffffffffffffffff16815260200160078201548152602001600882015481526020016009820160009054906101000a900460ff16151515158152505083838151811061060357610602612165565b5b60200260200101819052508180610619906120ee565b9250505b8080610628906120ee565b9150506103e5565b5081935050505090565b60606000805b600360008573ffffffffffffffffffffffffffffffffffffffff1673ffffffffffffffffffffffffffffffffffffffff16815260200190815260200160002080549050811015610776576000600360008673ffffffffffffffffffffffffffffffffffffffff1673ffffffffffffffffffffffffffffffffffffffff16815260200190815260200160002082815481106106dd576106dc612165565b5b906000526020600020015490508473ffffffffffffffffffffffffffffffffffffffff166002600083815260200190815260200160002060010160009054906101000a900473ffffffffffffffffffffffffffffffffffffffff1673ffffffffffffffffffffffffffffffffffffffff160361076257828061075e906120ee565b9350505b50808061076e906120ee565b915050610640565b5060008167ffffffffffffffff81111561079357610792612136565b5b6040519080825280602002602001820160405280156107cc57816020015b6107b9611a53565b8152602001906001900390816107b15790505b5090506000805b600360008773ffffffffffffffffffffffffffffffffffffffff1673ffffffffffffffffffffffffffffffffffffffff16815260200190815260200160002080549050811015610ada576000600360008873ffffffffffffffffffffffffffffffffffffffff1673ffffffffffffffffffffffffffffffffffffffff16815260200190815260200160002082815481106108705761086f612165565b5b906000526020600020015490508673ffffffffffffffffffffffffffffffffffffffff166002600083815260200190815260200160002060010160009054906101000a900473ffffffffffffffffffffffffffffffffffffffff1673ffffffffffffffffffffffffffffffffffffffff1603610ac6576002600082815260200190815260200160002060405180610160016040529081600082015481526020016001820160009054906101000a900473ffffffffffffffffffffffffffffffffffffffff1673ffffffffffffffffffffffffffffffffffffffff1673ffffffffffffffffffffffffffffffffffffffff16815260200160028201548152602001600382015481526020016004820160009054906101000a900460ff16600481111561099e5761099d611b89565b5b60048111156109b0576109af611b89565b5b81526020016004820160019054906101000a900473ffffffffffffffffffffffffffffffffffffffff1673ffffffffffffffffffffffffffffffffffffffff1673ffffffffffffffffffffffffffffffffffffffff168152602001600582015481526020016006820160009054906101000a900473ffffffffffffffffffffffffffffffffffffffff1673ffffffffffffffffffffffffffffffffffffffff1673ffffffffffffffffffffffffffffffffffffffff16815260200160078201548152602001600882015481526020016009820160009054906101000a900460ff161515151581525050848481518110610aac57610aab612165565b5b60200260200101819052508280610ac2906120ee565b9350505b508080610ad2906120ee565b9150506107d3565b50819350505050919050565b60006002811115610afa57610af9611b89565b5b600160003373ffffffffffffffffffffffffffffffffffffffff1673ffffffffffffffffffffffffffffffffffffffff16815260200190815260200160002060000160009054906101000a900460ff166002811115610b5c57610b5b611b89565b5b14610b9c576040517f08c379a0000000000000000000000000000000000000000000000000000000008152600401610b93906121f1565b60405180910390fd5b6040518060600160405280826002811115610bba57610bb9611b89565b5b8152602001600081526020016000815250600160003373ffffffffffffffffffffffffffffffffffffffff1673ffffffffffffffffffffffffffffffffffffffff16815260200190815260200160002060008201518160000160006101000a81548160ff02191690836002811115610c3557610c34611b89565b5b021790555060208201518160010155604082015181600201559050503373ffffffffffffffffffffffffffffffffffffffff167f89b4e995568c900aa52376cbed225dc1a013c9a43cb58186d69676ff593d7c4e82604051610c979190612211565b60405180910390a250565b60016002811115610cb657610cb5611b89565b5b600160003373ffffffffffffffffffffffffffffffffffffffff1673ffffffffffffffffffffffffffffffffffffffff16815260200190815260200160002060000160009054906101000a900460ff166002811115610d1857610d17611b89565b5b14610d58576040517f08c379a0000000000000000000000000000000000000000000000000000000008152600401610d4f90612278565b60405180910390fd5b60056000815480929190610d6b906120ee565b919050555060405180610160016040528060055481526020013373ffffffffffffffffffffffffffffffffffffffff16815260200184815260200183815260200160006004811115610dc057610dbf611b89565b5b8152602001600073ffffffffffffffffffffffffffffffffffffffff16815260200160008152602001600073ffffffffffffffffffffffffffffffffffffffff168152602001600081526020018242610e199190612298565b8152602001600015158152506002600060055481526020019081526020016000206000820151816000015560208201518160010160006101000a81548173ffffffffffffffffffffffffffffffffffffffff021916908373ffffffffffffffffffffffffffffffffffffffff160217905550604082015181600201556060820151816003015560808201518160040160006101000a81548160ff02191690836004811115610eca57610ec9611b89565b5b021790555060a08201518160040160016101000a81548173ffffffffffffffffffffffffffffffffffffffff021916908373ffffffffffffffffffffffffffffffffffffffff16021790555060c0820151816005015560e08201518160060160006101000a81548173ffffffffffffffffffffffffffffffffffffffff021916908373ffffffffffffffffffffffffffffffffffffffff160217905550610100820151816007015561012082015181600801556101408201518160090160006101000a81548160ff021916908315150217905550905050600360003373ffffffffffffffffffffffffffffffffffffffff1673ffffffffffffffffffffffffffffffffffffffff16815260200190815260200160002060055490806001815401808255809150506001900390600052602060002001600090919091909150553373ffffffffffffffffffffffffffffffffffffffff167fa6f24ff0819c36475b27327ddde99f8b25541733ea490efdc0904d604ac6d63e6005548585604051611055939291906122cc565b60405180910390a2505050565b6003602052816000526040600020818154811061107e57600080fd5b90600052602060002001600091509150505481565b60005481565b600460205281600052604060002081815481106110b557600080fd5b90600052602060002001600091509150505481565b6002808111156110dd576110dc611b89565b5b600160003373ffffffffffffffffffffffffffffffffffffffff1673ffffffffffffffffffffffffffffffffffffffff16815260200190815260200160002060000160009054906101000a900460ff16600281111561113f5761113e611b89565b5b1461117f576040517f08c379a00000000000000000000000000000000000000000000000000000000081526004016111769061234f565b60405180910390fd5b6000600260008381526020019081526020016000209050600060048111156111aa576111a9611b89565b5b8160040160009054906101000a900460ff1660048111156111ce576111cd611b89565b5b1461120e576040517f08c379a0000000000000000000000000000000000000000000000000000000008152600401611205906123bb565b60405180910390fd5b80600801544210611254576040517f08c379a000000000000000000000000000000000000000000000000000000000815260040161124b90612427565b60405180910390fd5b60003411611297576040517f08c379a000000000000000000000000000000000000000000000000000000000815260040161128e90612493565b60405180910390fd5b8060010160009054906101000a900473ffffffffffffffffffffffffffffffffffffffff1673ffffffffffffffffffffffffffffffffffffffff163373ffffffffffffffffffffffffffffffffffffffff1603611329576040517f08c379a0000000000000000000000000000000000000000000000000000000008152600401611320906124ff565b60405180910390fd5b600073ffffffffffffffffffffffffffffffffffffffff168160040160019054906101000a900473ffffffffffffffffffffffffffffffffffffffff1673ffffffffffffffffffffffffffffffffffffffff16141580156113d957508060040160019054906101000a900473ffffffffffffffffffffffffffffffffffffffff1673ffffffffffffffffffffffffffffffffffffffff163373ffffffffffffffffffffffffffffffffffffffff16145b156113fe57348160050160008282546113f29190612298565b925050819055506115ed565b600073ffffffffffffffffffffffffffffffffffffffff168160040160019054906101000a900473ffffffffffffffffffffffffffffffffffffffff1673ffffffffffffffffffffffffffffffffffffffff16146114c6578060040160019054906101000a900473ffffffffffffffffffffffffffffffffffffffff1673ffffffffffffffffffffffffffffffffffffffff166108fc82600501549081150290604051600060405180830381858888f193505050501580156114c4573d6000803e3d6000fd5b505b8060040160019054906101000a900473ffffffffffffffffffffffffffffffffffffffff168160060160006101000a81548173ffffffffffffffffffffffffffffffffffffffff021916908373ffffffffffffffffffffffffffffffffffffffff16021790555080600501548160070181905550338160040160016101000a81548173ffffffffffffffffffffffffffffffffffffffff021916908373ffffffffffffffffffffffffffffffffffffffff160217905550348160050181905550600460003373ffffffffffffffffffffffffffffffffffffffff1673ffffffffffffffffffffffffffffffffffffffff1681526020019081526020016000208290806001815401808255809150506001900390600052602060002001600090919091909150555b60005481600801546115ff919061251f565b4211156116245760005481600801600082825461161c9190612298565b925050819055505b3373ffffffffffffffffffffffffffffffffffffffff167f0e54eff26401bf69b81b26f60bd85ef47f5d85275c1d268d84f68d6897431c47838360050154604051611670929190612553565b60405180910390a25050565b60016020528060005260406000206000915090508060000160009054906101000a900460ff16908060010154908060020154905083565b60055481565b600160028111156116cd576116cc611b89565b5b600160003373ffffffffffffffffffffffffffffffffffffffff1673ffffffffffffffffffffffffffffffffffffffff16815260200190815260200160002060000160009054906101000a900460ff16600281111561172f5761172e611b89565b5b1461176f576040517f08c379a000000000000000000000000000000000000000000000000000000000815260040161176690612278565b60405180910390fd5b60006002600083815260200190815260200160002090506000600481111561179a57611799611b89565b5b8160040160009054906101000a900460ff1660048111156117be576117bd611b89565b5b146117fe576040517f08c379a00000000000000000000000000000000000000000000000000000000081526004016117f5906125c8565b60405180910390fd5b600073ffffffffffffffffffffffffffffffffffffffff168160040160019054906101000a900473ffffffffffffffffffffffffffffffffffffffff1673ffffffffffffffffffffffffffffffffffffffff1603611891576040517f08c379a000000000000000000000000000000000000000000000000000000000815260040161188890612634565b60405180910390fd5b60028160040160006101000a81548160ff021916908360048111156118b9576118b8611b89565b5b02179055503373ffffffffffffffffffffffffffffffffffffffff166108fc82600501549081150290604051600060405180830381858888f19350505050158015611908573d6000803e3d6000fd5b508060040160019054906101000a900473ffffffffffffffffffffffffffffffffffffffff1673ffffffffffffffffffffffffffffffffffffffff167f35848b3bf77286fb72d5ce82c3fab7eca41dfcb7c17391dcf1b8a51c33e60001836040516119739190611f20565b60405180910390a25050565b60026020528060005260406000206000915090508060000154908060010160009054906101000a900473ffffffffffffffffffffffffffffffffffffffff16908060020154908060030154908060040160009054906101000a900460ff16908060040160019054906101000a900473ffffffffffffffffffffffffffffffffffffffff16908060050154908060060160009054906101000a900473ffffffffffffffffffffffffffffffffffffffff16908060070154908060080154908060090160009054906101000a900460ff1690508b565b60405180610160016040528060008152602001600073ffffffffffffffffffffffffffffffffffffffff168152602001600081526020016000815260200160006004811115611aa557611aa4611b89565b5b8152602001600073ffffffffffffffffffffffffffffffffffffffff16815260200160008152602001600073ffffffffffffffffffffffffffffffffffffffff16815260200160008152602001600081526020016000151581525090565b600081519050919050565b600082825260208201905092915050565b6000819050602082019050919050565b6000819050919050565b611b4281611b2f565b82525050565b600073ffffffffffffffffffffffffffffffffffffffff82169050919050565b6000611b7382611b48565b9050919050565b611b8381611b68565b82525050565b7f4e487b7100000000000000000000000000000000000000000000000000000000600052602160045260246000fd5b60058110611bc957611bc8611b89565b5b50565b6000819050611bda82611bb8565b919050565b6000611bea82611bcc565b9050919050565b611bfa81611bdf565b82525050565b60008115159050919050565b611c1581611c00565b82525050565b61016082016000820151611c326000850182611b39565b506020820151611c456020850182611b7a565b506040820151611c586040850182611b39565b506060820151611c6b6060850182611b39565b506080820151611c7e6080850182611bf1565b5060a0820151611c9160a0850182611b7a565b5060c0820151611ca460c0850182611b39565b5060e0820151611cb760e0850182611b7a565b50610100820151611ccc610100850182611b39565b50610120820151611ce1610120850182611b39565b50610140820151611cf6610140850182611c0c565b50505050565b6000611d088383611c1b565b6101608301905092915050565b6000602082019050919050565b6000611d2d82611b03565b611d378185611b0e565b9350611d4283611b1f565b8060005b83811015611d73578151611d5a8882611cfc565b9750611d6583611d15565b925050600181019050611d46565b5085935050505092915050565b60006020820190508181036000830152611d9a8184611d22565b905092915050565b600080fd5b611db081611b68565b8114611dbb57600080fd5b50565b600081359050611dcd81611da7565b92915050565b600060208284031215611de957611de8611da2565b5b6000611df784828501611dbe565b91505092915050565b60038110611e0d57600080fd5b50565b600081359050611e1f81611e00565b92915050565b600060208284031215611e3b57611e3a611da2565b5b6000611e4984828501611e10565b91505092915050565b611e5b81611b2f565b8114611e6657600080fd5b50565b600081359050611e7881611e52565b92915050565b600080600060608486031215611e9757611e96611da2565b5b6000611ea586828701611e69565b9350506020611eb686828701611e69565b9250506040611ec786828701611e69565b9150509250925092565b60008060408385031215611ee857611ee7611da2565b5b6000611ef685828601611dbe565b9250506020611f0785828601611e69565b9150509250929050565b611f1a81611b2f565b82525050565b6000602082019050611f356000830184611f11565b92915050565b600060208284031215611f5157611f50611da2565b5b6000611f5f84828501611e69565b91505092915050565b60038110611f7957611f78611b89565b5b50565b6000819050611f8a82611f68565b919050565b6000611f9a82611f7c565b9050919050565b611faa81611f8f565b82525050565b6000606082019050611fc56000830186611fa1565b611fd26020830185611f11565b611fdf6040830184611f11565b949350505050565b611ff081611b68565b82525050565b611fff81611bdf565b82525050565b61200e81611c00565b82525050565b60006101608201905061202a600083018e611f11565b612037602083018d611fe7565b612044604083018c611f11565b612051606083018b611f11565b61205e608083018a611ff6565b61206b60a0830189611fe7565b61207860c0830188611f11565b61208560e0830187611fe7565b612093610100830186611f11565b6120a1610120830185611f11565b6120af610140830184612005565b9c9b505050505050505050505050565b7f4e487b7100000000000000000000000000000000000000000000000000000000600052601160045260246000fd5b60006120f982611b2f565b91507fffffffffffffffffffffffffffffffffffffffffffffffffffffffffffffffff820361212b5761212a6120bf565b5b600182019050919050565b7f4e487b7100000000000000000000000000000000000000000000000000000000600052604160045260246000fd5b7f4e487b7100000000000000000000000000000000000000000000000000000000600052603260045260246000fd5b600082825260208201905092915050565b7f5573657220616c72656164792072656769737465726564000000000000000000600082015250565b60006121db601783612194565b91506121e6826121a5565b602082019050919050565b6000602082019050818103600083015261220a816121ce565b9050919050565b60006020820190506122266000830184611fa1565b92915050565b7f4e6f74206120726567697374657265642070726f73756d657200000000000000600082015250565b6000612262601983612194565b915061226d8261222c565b602082019050919050565b6000602082019050818103600083015261229181612255565b9050919050565b60006122a382611b2f565b91506122ae83611b2f565b92508282019050808211156122c6576122c56120bf565b5b92915050565b60006060820190506122e16000830186611f11565b6122ee6020830185611f11565b6122fb6040830184611f11565b949350505050565b7f4e6f742061207265676973746572656420636f6e73756d657200000000000000600082015250565b6000612339601983612194565b915061234482612303565b602082019050919050565b600060208201905081810360008301526123688161232c565b9050919050565b7f4c697374696e67206e6f74206f70656e00000000000000000000000000000000600082015250565b60006123a5601083612194565b91506123b08261236f565b602082019050919050565b600060208201905081810360008301526123d481612398565b9050919050565b7f41756374696f6e20656e64656400000000000000000000000000000000000000600082015250565b6000612411600d83612194565b915061241c826123db565b602082019050919050565b6000602082019050818103600083015261244081612404565b9050919050565b7f426964206d7573742062652067726561746572207468616e2030000000000000600082015250565b600061247d601a83612194565b915061248882612447565b602082019050919050565b600060208201905081810360008301526124ac81612470565b9050919050565b7f43616e6e6f7420626964206f6e20796f7572206f776e206c697374696e670000600082015250565b60006124e9601e83612194565b91506124f4826124b3565b602082019050919050565b60006020820190508181036000830152612518816124dc565b9050919050565b600061252a82611b2f565b915061253583611b2f565b925082820390508181111561254d5761254c6120bf565b5b92915050565b60006040820190506125686000830185611f11565b6125756020830184611f11565b9392505050565b7f5472616465206e6f74206f70656e000000000000000000000000000000000000600082015250565b60006125b2600e83612194565b91506125bd8261257c565b602082019050919050565b600060208201905081810360008301526125e1816125a5565b9050919050565b7f4e6f206269647320706c61636564000000000000000000000000000000000000600082015250565b600061261e600e83612194565b9150612629826125e8565b602082019050919050565b6000602082019050818103600083015261264d81612611565b905091905056fea2646970667358221220fd872e05cc58e7b4aa80bffe21811e42ce8ba91c15e2af2e19dac0a8a85682d664736f6c63430008130033",
  "linkReferences": {},
  "deployedLinkReferences": {}
}