{
  "_format": "hh-sol-artifact-1",
  "contractName": "EnergyTrading",
  "sourceName": "contracts/EnergyTrading.sol",
  "abi": [
    {
      "anonymous": false,
      "inputs": [
        {
          "indexed": false,
          "internalType": "uint256",
          "name": "listingId",
          "type": "uint256"
        },
        {
          "indexed": true,
          "internalType": "address",
          "name": "consumer",
          "type": "address"
        },
        {
          "indexed": false,
          "internalType": "uint256",
          "name": "bidAmount",
          "type": "uint256"
        }
      ],
      "name": "BidPlaced",
      "type": "event"
    },
    {
      "anonymous": false,
      "inputs": [
        {
          "indexed": false,
          "internalType": "uint256",
          "name": "listingId",
          "type": "uint256"
        },
        {
          "indexed": true,
          "internalType": "address",
          "name": "prosumer",
          "type": "address"
        }
      ],
      "name": "EnergyListingDeleted",
      "type": "event"
    },
    {
      "anonymous": false,
      "inputs": [
        {
          "indexed": false,
          "internalType": "uint256",
          "name": "listingId",
          "type": "uint256"
        },
        {
          "indexed": true,
          "internalType": "address",
          "name": "prosumer",
          "type": "address"
        },
        {
          "indexed": false,
          "internalType": "uint256",
          "name": "energyAmount",
          "type": "uint256"
        },
        {
          "indexed": false,
          "internalType": "uint256",
          "name": "minPrice",
          "type": "uint256"
        },
        {
          "indexed": false,
          "internalType": "uint256",
          "name": "auctionEnd",
          "type": "uint256"
        }
      ],
      "name": "EnergyListingEdited",
      "type": "event"
    },
    {
      "anonymous": false,
      "inputs": [
        {
          "indexed": false,
          "internalType": "uint256",
          "name": "listingId",
          "type": "uint256"
        },
        {
          "indexed": true,
          "internalType": "address",
          "name": "prosumer",
          "type": "address"
        },
        {
          "indexed": false,
          "internalType": "uint256",
          "name": "energyAmount",
          "type": "uint256"
        },
        {
          "indexed": false,
          "internalType": "uint256",
          "name": "minPrice",
          "type": "uint256"
        }
      ],
      "name": "EnergyPosted",
      "type": "event"
    },
    {
      "anonymous": false,
      "inputs": [
        {
          "indexed": true,
          "internalType": "address",
          "name": "user",
          "type": "address"
        },
        {
          "indexed": false,
          "internalType": "enum EnergyTrading.Role",
          "name": "role",
          "type": "uint8"
        }
      ],
      "name": "Registered",
      "type": "event"
    },
    {
      "anonymous": false,
      "inputs": [
        {
          "indexed": false,
          "internalType": "uint256",
          "name": "listingId",
          "type": "uint256"
        },
        {
          "indexed": true,
          "internalType": "address",
          "name": "consumer",
          "type": "address"
        }
      ],
      "name": "TradeFinalized",
      "type": "event"
    },
    {
      "inputs": [
        {
          "internalType": "uint256",
          "name": "_listingId",
          "type": "uint256"
        }
      ],
      "name": "deleteEnergyPost",
      "outputs": [],
      "stateMutability": "nonpayable",
      "type": "function"
    },
    {
      "inputs": [
        {
          "internalType": "uint256",
          "name": "_listingId",
          "type": "uint256"
        },
        {
          "internalType": "uint256",
          "name": "_energyAmount",
          "type": "uint256"
        },
        {
          "internalType": "uint256",
          "name": "_minPrice",
          "type": "uint256"
        },
        {
          "internalType": "uint256",
          "name": "_auctionEnd",
          "type": "uint256"
        }
      ],
      "name": "editEnergyPost",
      "outputs": [],
      "stateMutability": "nonpayable",
      "type": "function"
    },
    {
      "inputs": [
        {
          "internalType": "uint256",
          "name": "_listingId",
          "type": "uint256"
        }
      ],
      "name": "finalizeTrade",
      "outputs": [],
      "stateMutability": "nonpayable",
      "type": "function"
    },
    {
      "inputs": [],
      "name": "getAllActiveOffers",
      "outputs": [
        {
          "components": [
            {
              "internalType": "uint256",
              "name": "id",
              "type": "uint256"
            },
            {
              "internalType": "address",
              "name": "prosumer",
              "type": "address"
            },
            {
              "internalType": "uint256",
              "name": "energyAmount",
              "type": "uint256"
            },
            {
              "internalType": "uint256",
              "name": "minPrice",
              "type": "uint256"
            },
            {
              "internalType": "enum EnergyTrading.TradeStatus",
              "name": "status",
              "type": "uint8"
            },
            {
              "internalType": "address",
              "name": "highestBidder",
              "type": "address"
            },
            {
              "internalType": "uint256",
              "name": "highestBid",
              "type": "uint256"
            },
            {
              "internalType": "address",
              "name": "secondHighestBidder",
              "type": "address"
            },
            {
              "internalType": "uint256",
              "name": "secondHighestBid",
              "type": "uint256"
            },
            {
              "internalType": "uint256",
              "name": "auctionEnd",
              "type": "uint256"
            },
            {
              "internalType": "bool",
              "name": "isScheduled",
              "type": "bool"
            }
          ],
          "internalType": "struct EnergyTrading.EnergyListing[]",
          "name": "",
          "type": "tuple[]"
        }
      ],
      "stateMutability": "view",
      "type": "function"
    },
    {
      "inputs": [
        {
          "internalType": "address",
          "name": "prosumer",
          "type": "address"
        }
      ],
      "name": "getMyPosts",
      "outputs": [
        {
          "components": [
            {
              "internalType": "uint256",
              "name": "id",
              "type": "uint256"
            },
            {
              "internalType": "address",
              "name": "prosumer",
              "type": "address"
            },
            {
              "internalType": "uint256",
              "name": "energyAmount",
              "type": "uint256"
            },
            {
              "internalType": "uint256",
              "name": "minPrice",
              "type": "uint256"
            },
            {
              "internalType": "enum EnergyTrading.TradeStatus",
              "name": "status",
              "type": "uint8"
            },
            {
              "internalType": "address",
              "name": "highestBidder",
              "type": "address"
            },
            {
              "internalType": "uint256",
              "name": "highestBid",
              "type": "uint256"
            },
            {
              "internalType": "address",
              "name": "secondHighestBidder",
              "type": "address"
            },
            {
              "internalType": "uint256",
              "name": "secondHighestBid",
              "type": "uint256"
            },
            {
              "internalType": "uint256",
              "name": "auctionEnd",
              "type": "uint256"
            },
            {
              "internalType": "bool",
              "name": "isScheduled",
              "type": "bool"
            }
          ],
          "internalType": "struct EnergyTrading.EnergyListing[]",
          "name": "",
          "type": "tuple[]"
        }
      ],
      "stateMutability": "view",
      "type": "function"
    },
    {
      "inputs": [],
      "name": "listingCount",
      "outputs": [
        {
          "internalType": "uint256",
          "name": "",
          "type": "uint256"
        }
      ],
      "stateMutability": "view",
      "type": "function"
    },
    {
      "inputs": [
        {
          "internalType": "uint256",
          "name": "",
          "type": "uint256"
        }
      ],
      "name": "listings",
      "outputs": [
        {
          "internalType": "uint256",
          "name": "id",
          "type": "uint256"
        },
        {
          "internalType": "address",
          "name": "prosumer",
          "type": "address"
        },
        {
          "internalType": "uint256",
          "name": "energyAmount",
          "type": "uint256"
        },
        {
          "internalType": "uint256",
          "name": "minPrice",
          "type": "uint256"
        },
        {
          "internalType": "enum EnergyTrading.TradeStatus",
          "name": "status",
          "type": "uint8"
        },
        {
          "internalType": "address",
          "name": "highestBidder",
          "type": "address"
        },
        {
          "internalType": "uint256",
          "name": "highestBid",
          "type": "uint256"
        },
        {
          "internalType": "address",
          "name": "secondHighestBidder",
          "type": "address"
        },
        {
          "internalType": "uint256",
          "name": "secondHighestBid",
          "type": "uint256"
        },
        {
          "internalType": "uint256",
          "name": "auctionEnd",
          "type": "uint256"
        },
        {
          "internalType": "bool",
          "name": "isScheduled",
          "type": "bool"
        }
      ],
      "stateMutability": "view",
      "type": "function"
    },
    {
      "inputs": [
        {
          "internalType": "uint256",
          "name": "_listingId",
          "type": "uint256"
        }
      ],
      "name": "placeBid",
      "outputs": [],
      "stateMutability": "payable",
      "type": "function"
    },
    {
      "inputs": [
        {
          "internalType": "uint256",
          "name": "_energyAmount",
          "type": "uint256"
        },
        {
          "internalType": "uint256",
          "name": "_minPrice",
          "type": "uint256"
        },
        {
          "internalType": "uint256",
          "name": "_auctionDuration",
          "type": "uint256"
        }
      ],
      "name": "postEnergy",
      "outputs": [],
      "stateMutability": "nonpayable",
      "type": "function"
    },
    {
      "inputs": [
        {
          "internalType": "address",
          "name": "",
          "type": "address"
        },
        {
          "internalType": "uint256",
          "name": "",
          "type": "uint256"
        }
      ],
      "name": "prosumerListings",
      "outputs": [
        {
          "internalType": "uint256",
          "name": "",
          "type": "uint256"
        }
      ],
      "stateMutability": "view",
      "type": "function"
    },
    {
      "inputs": [
        {
          "internalType": "enum EnergyTrading.Role",
          "name": "_role",
          "type": "uint8"
        }
      ],
      "name": "registerUser",
      "outputs": [],
      "stateMutability": "nonpayable",
      "type": "function"
    },
    {
      "inputs": [],
      "name": "snipeTimeExtension",
      "outputs": [
        {
          "internalType": "uint256",
          "name": "",
          "type": "uint256"
        }
      ],
      "stateMutability": "view",
      "type": "function"
    },
    {
      "inputs": [
        {
          "internalType": "address",
          "name": "",
          "type": "address"
        },
        {
          "internalType": "uint256",
          "name": "",
          "type": "uint256"
        }
      ],
      "name": "userBids",
      "outputs": [
        {
          "internalType": "uint256",
          "name": "",
          "type": "uint256"
        }
      ],
      "stateMutability": "view",
      "type": "function"
    },
    {
      "inputs": [
        {
          "internalType": "address",
          "name": "",
          "type": "address"
        }
      ],
      "name": "users",
      "outputs": [
        {
          "internalType": "enum EnergyTrading.Role",
          "name": "role",
          "type": "uint8"
        },
        {
          "internalType": "uint256",
          "name": "reputation",
          "type": "uint256"
        },
        {
          "internalType": "uint256",
          "name": "storedEnergy",
          "type": "uint256"
        }
      ],
      "stateMutability": "view",
      "type": "function"
    }
  ],
  "bytecode": "0x6080604052607860005534801561001557600080fd5b50612e37806100256000396000f3fe6080604052600436106100dc5760003560e01c806396ec50c31161007f578063a9b07c2611610059578063a9b07c26146102c4578063bafb8a98146102ef578063d58c71a514610318578063de74e57b14610341576100dc565b806396ec50c31461022c5780639979ef4514610269578063a87430ba14610285576100dc565b8063093e605a116100bb578063093e605a1461017257806313a8480d1461019b578063317a2748146101c45780634739065014610201576100dc565b80623beca0146100e157806302416b291461010c57806302b8c8cd14610149575b600080fd5b3480156100ed57600080fd5b506100f6610388565b60405161010391906122b3565b60405180910390f35b34801561011857600080fd5b50610133600480360381019061012e9190612306565b6106c2565b60405161014091906122b3565b60405180910390f35b34801561015557600080fd5b50610170600480360381019061016b9190612358565b610b6e565b005b34801561017e57600080fd5b50610199600480360381019061019491906123b1565b610d2a565b005b3480156101a757600080fd5b506101c260048036038101906101bd9190612418565b610f77565b005b3480156101d057600080fd5b506101eb60048036038101906101e6919061246b565b611337565b6040516101f891906124ba565b60405180910390f35b34801561020d57600080fd5b50610216611368565b60405161022391906124ba565b60405180910390f35b34801561023857600080fd5b50610253600480360381019061024e919061246b565b61136e565b60405161026091906124ba565b60405180910390f35b610283600480360381019061027e91906124d5565b61139f565b005b34801561029157600080fd5b506102ac60048036038101906102a79190612306565b611951565b6040516102bb9392919061254a565b60405180910390f35b3480156102d057600080fd5b506102d9611988565b6040516102e691906124ba565b60405180910390f35b3480156102fb57600080fd5b50610316600480360381019061031191906124d5565b61198e565b005b34801561032457600080fd5b5061033f600480360381019061033a91906124d5565b611bec565b005b34801561034d57600080fd5b50610368600480360381019061036391906124d5565b611eb2565b60405161037f9b9a999897969594939291906125ae565b60405180910390f35b6060600080600190505b600554811161040c57600060048111156103af576103ae6120bc565b5b6002600083815260200190815260200160002060040160009054906101000a900460ff1660048111156103e5576103e46120bc565b5b036103f95781806103f590612688565b9250505b808061040490612688565b915050610392565b5060008167ffffffffffffffff811115610429576104286126d0565b5b60405190808252806020026020018201604052801561046257816020015b61044f611f86565b8152602001906001900390816104475790505b509050600080600190505b60055481116106b8576000600481111561048a576104896120bc565b5b6002600083815260200190815260200160002060040160009054906101000a900460ff1660048111156104c0576104bf6120bc565b5b036106a5576002600082815260200190815260200160002060405180610160016040529081600082015481526020016001820160009054906101000a900473ffffffffffffffffffffffffffffffffffffffff1673ffffffffffffffffffffffffffffffffffffffff1673ffffffffffffffffffffffffffffffffffffffff16815260200160028201548152602001600382015481526020016004820160009054906101000a900460ff16600481111561057d5761057c6120bc565b5b600481111561058f5761058e6120bc565b5b81526020016004820160019054906101000a900473ffffffffffffffffffffffffffffffffffffffff1673ffffffffffffffffffffffffffffffffffffffff1673ffffffffffffffffffffffffffffffffffffffff168152602001600582015481526020016006820160009054906101000a900473ffffffffffffffffffffffffffffffffffffffff1673ffffffffffffffffffffffffffffffffffffffff1673ffffffffffffffffffffffffffffffffffffffff16815260200160078201548152602001600882015481526020016009820160009054906101000a900460ff16151515158152505083838151811061068b5761068a6126ff565b5b602002602001018190525081806106a190612688565b9250505b80806106b090612688565b91505061046d565b5081935050505090565b60606000805b600360008573ffffffffffffffffffffffffffffffffffffffff1673ffffffffffffffffffffffffffffffffffffffff168152602001908152602001600020805490508110156107fe576000600360008673ffffffffffffffffffffffffffffffffffffffff1673ffffffffffffffffffffffffffffffffffffffff1681526020019081526020016000208281548110610765576107646126ff565b5b906000526020600020015490508473ffffffffffffffffffffffffffffffffffffffff166002600083815260200190815260200160002060010160009054906101000a900473ffffffffffffffffffffffffffffffffffffffff1673ffffffffffffffffffffffffffffffffffffffff16036107ea5782806107e690612688565b9350505b5080806107f690612688565b9150506106c8565b5060008167ffffffffffffffff81111561081b5761081a6126d0565b5b60405190808252806020026020018201604052801561085457816020015b610841611f86565b8152602001906001900390816108395790505b5090506000805b600360008773ffffffffffffffffffffffffffffffffffffffff1673ffffffffffffffffffffffffffffffffffffffff16815260200190815260200160002080549050811015610b62576000600360008873ffffffffffffffffffffffffffffffffffffffff1673ffffffffffffffffffffffffffffffffffffffff16815260200190815260200160002082815481106108f8576108f76126ff565b5b906000526020600020015490508673ffffffffffffffffffffffffffffffffffffffff166002600083815260200190815260200160002060010160009054906101000a900473ffffffffffffffffffffffffffffffffffffffff1673ffffffffffffffffffffffffffffffffffffffff1603610b4e576002600082815260200190815260200160002060405180610160016040529081600082015481526020016001820160009054906101000a900473ffffffffffffffffffffffffffffffffffffffff1673ffffffffffffffffffffffffffffffffffffffff1673ffffffffffffffffffffffffffffffffffffffff16815260200160028201548152602001600382015481526020016004820160009054906101000a900460ff166004811115610a2657610a256120bc565b5b6004811115610a3857610a376120bc565b5b81526020016004820160019054906101000a900473ffffffffffffffffffffffffffffffffffffffff1673ffffffffffffffffffffffffffffffffffffffff1673ffffffffffffffffffffffffffffffffffffffff168152602001600582015481526020016006820160009054906101000a900473ffffffffffffffffffffffffffffffffffffffff1673ffffffffffffffffffffffffffffffffffffffff1673ffffffffffffffffffffffffffffffffffffffff16815260200160078201548152602001600882015481526020016009820160009054906101000a900460ff161515151581525050848481518110610b3457610b336126ff565b5b60200260200101819052508280610b4a90612688565b9350505b508080610b5a90612688565b91505061085b565b50819350505050919050565b60006002811115610b8257610b816120bc565b5b600160003373ffffffffffffffffffffffffffffffffffffffff1673ffffffffffffffffffffffffffffffffffffffff16815260200190815260200160002060000160009054906101000a900460ff166002811115610be457610be36120bc565b5b14610c24576040517f08c379a0000000000000000000000000000000000000000000000000000000008152600401610c1b9061278b565b60405180910390fd5b6040518060600160405280826002811115610c4257610c416120bc565b5b8152602001600081526020016000815250600160003373ffffffffffffffffffffffffffffffffffffffff1673ffffffffffffffffffffffffffffffffffffffff16815260200190815260200160002060008201518160000160006101000a81548160ff02191690836002811115610cbd57610cbc6120bc565b5b021790555060208201518160010155604082015181600201559050503373ffffffffffffffffffffffffffffffffffffffff167f89b4e995568c900aa52376cbed225dc1a013c9a43cb58186d69676ff593d7c4e82604051610d1f91906127ab565b60405180910390a250565b60016002811115610d3e57610d3d6120bc565b5b600160003373ffffffffffffffffffffffffffffffffffffffff1673ffffffffffffffffffffffffffffffffffffffff16815260200190815260200160002060000160009054906101000a900460ff166002811115610da057610d9f6120bc565b5b14610de0576040517f08c379a0000000000000000000000000000000000000000000000000000000008152600401610dd790612812565b60405180910390fd5b60006002600086815260200190815260200160002090503373ffffffffffffffffffffffffffffffffffffffff168160010160009054906101000a900473ffffffffffffffffffffffffffffffffffffffff1673ffffffffffffffffffffffffffffffffffffffff1614610e89576040517f08c379a0000000000000000000000000000000000000000000000000000000008152600401610e809061287e565b60405180910390fd5b60006004811115610e9d57610e9c6120bc565b5b8160040160009054906101000a900460ff166004811115610ec157610ec06120bc565b5b14610f01576040517f08c379a0000000000000000000000000000000000000000000000000000000008152600401610ef8906128ea565b60405180910390fd5b8381600201819055508281600301819055508181600801819055503373ffffffffffffffffffffffffffffffffffffffff167fead1643f76a5473362f901e6cc9172efc41df1d5cf0983cf69f56eefb2e2fdf786868686604051610f68949392919061290a565b60405180910390a25050505050565b60016002811115610f8b57610f8a6120bc565b5b600160003373ffffffffffffffffffffffffffffffffffffffff1673ffffffffffffffffffffffffffffffffffffffff16815260200190815260200160002060000160009054906101000a900460ff166002811115610fed57610fec6120bc565b5b1461102d576040517f08c379a000000000000000000000000000000000000000000000000000000000815260040161102490612812565b60405180910390fd5b6005600081548092919061104090612688565b919050555060405180610160016040528060055481526020013373ffffffffffffffffffffffffffffffffffffffff16815260200184815260200183815260200160006004811115611095576110946120bc565b5b8152602001600073ffffffffffffffffffffffffffffffffffffffff16815260200160008152602001600073ffffffffffffffffffffffffffffffffffffffff1681526020016000815260200182426110ee919061294f565b8152602001600015158152506002600060055481526020019081526020016000206000820151816000015560208201518160010160006101000a81548173ffffffffffffffffffffffffffffffffffffffff021916908373ffffffffffffffffffffffffffffffffffffffff160217905550604082015181600201556060820151816003015560808201518160040160006101000a81548160ff0219169083600481111561119f5761119e6120bc565b5b021790555060a08201518160040160016101000a81548173ffffffffffffffffffffffffffffffffffffffff021916908373ffffffffffffffffffffffffffffffffffffffff16021790555060c0820151816005015560e08201518160060160006101000a81548173ffffffffffffffffffffffffffffffffffffffff021916908373ffffffffffffffffffffffffffffffffffffffff160217905550610100820151816007015561012082015181600801556101408201518160090160006101000a81548160ff021916908315150217905550905050600360003373ffffffffffffffffffffffffffffffffffffffff1673ffffffffffffffffffffffffffffffffffffffff16815260200190815260200160002060055490806001815401808255809150506001900390600052602060002001600090919091909150553373ffffffffffffffffffffffffffffffffffffffff167fa6f24ff0819c36475b27327ddde99f8b25541733ea490efdc0904d604ac6d63e600554858560405161132a93929190612983565b60405180910390a2505050565b6003602052816000526040600020818154811061135357600080fd5b90600052602060002001600091509150505481565b60005481565b6004602052816000526040600020818154811061138a57600080fd5b90600052602060002001600091509150505481565b6002808111156113b2576113b16120bc565b5b600160003373ffffffffffffffffffffffffffffffffffffffff1673ffffffffffffffffffffffffffffffffffffffff16815260200190815260200160002060000160009054906101000a900460ff166002811115611414576114136120bc565b5b14611454576040517f08c379a000000000000000000000000000000000000000000000000000000000815260040161144b90612a06565b60405180910390fd5b60006002600083815260200190815260200160002090506000600481111561147f5761147e6120bc565b5b8160040160009054906101000a900460ff1660048111156114a3576114a26120bc565b5b146114e3576040517f08c379a00000000000000000000000000000000000000000000000000000000081526004016114da90612a72565b60405180910390fd5b80600801544210611529576040517f08c379a000000000000000000000000000000000000000000000000000000000815260040161152090612ade565b60405180910390fd5b6000341161156c576040517f08c379a000000000000000000000000000000000000000000000000000000000815260040161156390612b4a565b60405180910390fd5b8060010160009054906101000a900473ffffffffffffffffffffffffffffffffffffffff1673ffffffffffffffffffffffffffffffffffffffff163373ffffffffffffffffffffffffffffffffffffffff16036115fe576040517f08c379a00000000000000000000000000000000000000000000000000000000081526004016115f590612bb6565b60405180910390fd5b600073ffffffffffffffffffffffffffffffffffffffff168160040160019054906101000a900473ffffffffffffffffffffffffffffffffffffffff1673ffffffffffffffffffffffffffffffffffffffff16141580156116ae57508060040160019054906101000a900473ffffffffffffffffffffffffffffffffffffffff1673ffffffffffffffffffffffffffffffffffffffff163373ffffffffffffffffffffffffffffffffffffffff16145b156116d357348160050160008282546116c7919061294f565b925050819055506118c2565b600073ffffffffffffffffffffffffffffffffffffffff168160040160019054906101000a900473ffffffffffffffffffffffffffffffffffffffff1673ffffffffffffffffffffffffffffffffffffffff161461179b578060040160019054906101000a900473ffffffffffffffffffffffffffffffffffffffff1673ffffffffffffffffffffffffffffffffffffffff166108fc82600501549081150290604051600060405180830381858888f19350505050158015611799573d6000803e3d6000fd5b505b8060040160019054906101000a900473ffffffffffffffffffffffffffffffffffffffff168160060160006101000a81548173ffffffffffffffffffffffffffffffffffffffff021916908373ffffffffffffffffffffffffffffffffffffffff16021790555080600501548160070181905550338160040160016101000a81548173ffffffffffffffffffffffffffffffffffffffff021916908373ffffffffffffffffffffffffffffffffffffffff160217905550348160050181905550600460003373ffffffffffffffffffffffffffffffffffffffff1673ffffffffffffffffffffffffffffffffffffffff1681526020019081526020016000208290806001815401808255809150506001900390600052602060002001600090919091909150555b60005481600801546118d49190612bd6565b4211156118f9576000548160080160008282546118f1919061294f565b925050819055505b3373ffffffffffffffffffffffffffffffffffffffff167f0e54eff26401bf69b81b26f60bd85ef47f5d85275c1d268d84f68d6897431c47838360050154604051611945929190612c0a565b60405180910390a25050565b60016020528060005260406000206000915090508060000160009054906101000a900460ff16908060010154908060020154905083565b60055481565b600160028111156119a2576119a16120bc565b5b600160003373ffffffffffffffffffffffffffffffffffffffff1673ffffffffffffffffffffffffffffffffffffffff16815260200190815260200160002060000160009054906101000a900460ff166002811115611a0457611a036120bc565b5b14611a44576040517f08c379a0000000000000000000000000000000000000000000000000000000008152600401611a3b90612812565b60405180910390fd5b60006002600083815260200190815260200160002090503373ffffffffffffffffffffffffffffffffffffffff168160010160009054906101000a900473ffffffffffffffffffffffffffffffffffffffff1673ffffffffffffffffffffffffffffffffffffffff1614611aed576040517f08c379a0000000000000000000000000000000000000000000000000000000008152600401611ae49061287e565b60405180910390fd5b60006004811115611b0157611b006120bc565b5b8160040160009054906101000a900460ff166004811115611b2557611b246120bc565b5b14611b65576040517f08c379a0000000000000000000000000000000000000000000000000000000008152600401611b5c90612c7f565b60405180910390fd5b60048160040160006101000a81548160ff02191690836004811115611b8d57611b8c6120bc565b5b02179055503373ffffffffffffffffffffffffffffffffffffffff167fead1643f76a5473362f901e6cc9172efc41df1d5cf0983cf69f56eefb2e2fdf7836000806000604051611be09493929190612ce4565b60405180910390a25050565b60016002811115611c0057611bff6120bc565b5b600160003373ffffffffffffffffffffffffffffffffffffffff1673ffffffffffffffffffffffffffffffffffffffff16815260200190815260200160002060000160009054906101000a900460ff166002811115611c6257611c616120bc565b5b14611ca2576040517f08c379a0000000000000000000000000000000000000000000000000000000008152600401611c9990612812565b60405180910390fd5b600060026000838152602001908152602001600020905060006004811115611ccd57611ccc6120bc565b5b8160040160009054906101000a900460ff166004811115611cf157611cf06120bc565b5b14611d31576040517f08c379a0000000000000000000000000000000000000000000000000000000008152600401611d2890612d75565b60405180910390fd5b600073ffffffffffffffffffffffffffffffffffffffff168160040160019054906101000a900473ffffffffffffffffffffffffffffffffffffffff1673ffffffffffffffffffffffffffffffffffffffff1603611dc4576040517f08c379a0000000000000000000000000000000000000000000000000000000008152600401611dbb90612de1565b60405180910390fd5b60028160040160006101000a81548160ff02191690836004811115611dec57611deb6120bc565b5b02179055503373ffffffffffffffffffffffffffffffffffffffff166108fc82600501549081150290604051600060405180830381858888f19350505050158015611e3b573d6000803e3d6000fd5b508060040160019054906101000a900473ffffffffffffffffffffffffffffffffffffffff1673ffffffffffffffffffffffffffffffffffffffff167f35848b3bf77286fb72d5ce82c3fab7eca41dfcb7c17391dcf1b8a51c33e6000183604051611ea691906124ba565b60405180910390a25050565b60026020528060005260406000206000915090508060000154908060010160009054906101000a900473ffffffffffffffffffffffffffffffffffffffff16908060020154908060030154908060040160009054906101000a900460ff16908060040160019054906101000a900473ffffffffffffffffffffffffffffffffffffffff16908060050154908060060160009054906101000a900473ffffffffffffffffffffffffffffffffffffffff16908060070154908060080154908060090160009054906101000a900460ff1690508b565b60405180610160016040528060008152602001600073ffffffffffffffffffffffffffffffffffffffff168152602001600081526020016000815260200160006004811115611fd857611fd76120bc565b5b8152602001600073ffffffffffffffffffffffffffffffffffffffff16815260200160008152602001600073ffffffffffffffffffffffffffffffffffffffff16815260200160008152602001600081526020016000151581525090565b600081519050919050565b600082825260208201905092915050565b6000819050602082019050919050565b6000819050919050565b61207581612062565b82525050565b600073ffffffffffffffffffffffffffffffffffffffff82169050919050565b60006120a68261207b565b9050919050565b6120b68161209b565b82525050565b7f4e487b7100000000000000000000000000000000000000000000000000000000600052602160045260246000fd5b600581106120fc576120fb6120bc565b5b50565b600081905061210d826120eb565b919050565b600061211d826120ff565b9050919050565b61212d81612112565b82525050565b60008115159050919050565b61214881612133565b82525050565b61016082016000820151612165600085018261206c565b50602082015161217860208501826120ad565b50604082015161218b604085018261206c565b50606082015161219e606085018261206c565b5060808201516121b16080850182612124565b5060a08201516121c460a08501826120ad565b5060c08201516121d760c085018261206c565b5060e08201516121ea60e08501826120ad565b506101008201516121ff61010085018261206c565b5061012082015161221461012085018261206c565b5061014082015161222961014085018261213f565b50505050565b600061223b838361214e565b6101608301905092915050565b6000602082019050919050565b600061226082612036565b61226a8185612041565b935061227583612052565b8060005b838110156122a657815161228d888261222f565b975061229883612248565b925050600181019050612279565b5085935050505092915050565b600060208201905081810360008301526122cd8184612255565b905092915050565b600080fd5b6122e38161209b565b81146122ee57600080fd5b50565b600081359050612300816122da565b92915050565b60006020828403121561231c5761231b6122d5565b5b600061232a848285016122f1565b91505092915050565b6003811061234057600080fd5b50565b60008135905061235281612333565b92915050565b60006020828403121561236e5761236d6122d5565b5b600061237c84828501612343565b91505092915050565b61238e81612062565b811461239957600080fd5b50565b6000813590506123ab81612385565b92915050565b600080600080608085870312156123cb576123ca6122d5565b5b60006123d98782880161239c565b94505060206123ea8782880161239c565b93505060406123fb8782880161239c565b925050606061240c8782880161239c565b91505092959194509250565b600080600060608486031215612431576124306122d5565b5b600061243f8682870161239c565b93505060206124508682870161239c565b92505060406124618682870161239c565b9150509250925092565b60008060408385031215612482576124816122d5565b5b6000612490858286016122f1565b92505060206124a18582860161239c565b9150509250929050565b6124b481612062565b82525050565b60006020820190506124cf60008301846124ab565b92915050565b6000602082840312156124eb576124ea6122d5565b5b60006124f98482850161239c565b91505092915050565b60038110612513576125126120bc565b5b50565b600081905061252482612502565b919050565b600061253482612516565b9050919050565b61254481612529565b82525050565b600060608201905061255f600083018661253b565b61256c60208301856124ab565b61257960408301846124ab565b949350505050565b61258a8161209b565b82525050565b61259981612112565b82525050565b6125a881612133565b82525050565b6000610160820190506125c4600083018e6124ab565b6125d1602083018d612581565b6125de604083018c6124ab565b6125eb606083018b6124ab565b6125f8608083018a612590565b61260560a0830189612581565b61261260c08301886124ab565b61261f60e0830187612581565b61262d6101008301866124ab565b61263b6101208301856124ab565b61264961014083018461259f565b9c9b505050505050505050505050565b7f4e487b7100000000000000000000000000000000000000000000000000000000600052601160045260246000fd5b600061269382612062565b91507fffffffffffffffffffffffffffffffffffffffffffffffffffffffffffffffff82036126c5576126c4612659565b5b600182019050919050565b7f4e487b7100000000000000000000000000000000000000000000000000000000600052604160045260246000fd5b7f4e487b7100000000000000000000000000000000000000000000000000000000600052603260045260246000fd5b600082825260208201905092915050565b7f5573657220616c72656164792072656769737465726564000000000000000000600082015250565b600061277560178361272e565b91506127808261273f565b602082019050919050565b600060208201905081810360008301526127a481612768565b9050919050565b60006020820190506127c0600083018461253b565b92915050565b7f4e6f74206120726567697374657265642070726f73756d657200000000000000600082015250565b60006127fc60198361272e565b9150612807826127c6565b602082019050919050565b6000602082019050818103600083015261282b816127ef565b9050919050565b7f4e6f7420746865206f776e6572206f6620746865206c697374696e6700000000600082015250565b6000612868601c8361272e565b915061287382612832565b602082019050919050565b600060208201905081810360008301526128978161285b565b9050919050565b7f43616e6e6f742065646974206120636c6f736564206c697374696e6700000000600082015250565b60006128d4601c8361272e565b91506128df8261289e565b602082019050919050565b60006020820190508181036000830152612903816128c7565b9050919050565b600060808201905061291f60008301876124ab565b61292c60208301866124ab565b61293960408301856124ab565b61294660608301846124ab565b95945050505050565b600061295a82612062565b915061296583612062565b925082820190508082111561297d5761297c612659565b5b92915050565b600060608201905061299860008301866124ab565b6129a560208301856124ab565b6129b260408301846124ab565b949350505050565b7f4e6f742061207265676973746572656420636f6e73756d657200000000000000600082015250565b60006129f060198361272e565b91506129fb826129ba565b602082019050919050565b60006020820190508181036000830152612a1f816129e3565b9050919050565b7f4c697374696e67206e6f74206f70656e00000000000000000000000000000000600082015250565b6000612a5c60108361272e565b9150612a6782612a26565b602082019050919050565b60006020820190508181036000830152612a8b81612a4f565b9050919050565b7f41756374696f6e20656e64656400000000000000000000000000000000000000600082015250565b6000612ac8600d8361272e565b9150612ad382612a92565b602082019050919050565b60006020820190508181036000830152612af781612abb565b9050919050565b7f426964206d7573742062652067726561746572207468616e2030000000000000600082015250565b6000612b34601a8361272e565b9150612b3f82612afe565b602082019050919050565b60006020820190508181036000830152612b6381612b27565b9050919050565b7f43616e6e6f7420626964206f6e20796f7572206f776e206c697374696e670000600082015250565b6000612ba0601e8361272e565b9150612bab82612b6a565b602082019050919050565b60006020820190508181036000830152612bcf81612b93565b9050919050565b6000612be182612062565b9150612bec83612062565b9250828203905081811115612c0457612c03612659565b5b92915050565b6000604082019050612c1f60008301856124ab565b612c2c60208301846124ab565b9392505050565b7f43616e6e6f742064656c657465206120636c6f736564206c697374696e670000600082015250565b6000612c69601e8361272e565b9150612c7482612c33565b602082019050919050565b60006020820190508181036000830152612c9881612c5c565b9050919050565b6000819050919050565b6000819050919050565b6000612cce612cc9612cc484612c9f565b612ca9565b612062565b9050919050565b612cde81612cb3565b82525050565b6000608082019050612cf960008301876124ab565b612d066020830186612cd5565b612d136040830185612cd5565b612d206060830184612cd5565b95945050505050565b7f5472616465206e6f74206f70656e000000000000000000000000000000000000600082015250565b6000612d5f600e8361272e565b9150612d6a82612d29565b602082019050919050565b60006020820190508181036000830152612d8e81612d52565b9050919050565b7f4e6f206269647320706c61636564000000000000000000000000000000000000600082015250565b6000612dcb600e8361272e565b9150612dd682612d95565b602082019050919050565b60006020820190508181036000830152612dfa81612dbe565b905091905056fea264697066735822122070c22ded535b5955fa1cb41640c8de279010e927ca70e77e57ff2229f3826a6564736f6c63430008130033",
  "linkReferences": {},
  "deployedLinkReferences": {}
}