{
  "_format": "hh-sol-artifact-1",
  "contractName": "EnergyTrading",
  "sourceName": "contracts/EnergyTrading.sol",
  "abi": [
    {
      "anonymous": false,
      "inputs": [
        {
          "indexed": false,
          "internalType": "uint256",
          "name": "listingId",
          "type": "uint256"
        },
        {
          "indexed": true,
          "internalType": "address",
          "name": "consumer",
          "type": "address"
        },
        {
          "indexed": false,
          "internalType": "uint256",
          "name": "bidAmount",
          "type": "uint256"
        }
      ],
      "name": "BidPlaced",
      "type": "event"
    },
    {
      "anonymous": false,
      "inputs": [
        {
          "indexed": false,
          "internalType": "uint256",
          "name": "listingId",
          "type": "uint256"
        },
        {
          "indexed": true,
          "internalType": "address",
          "name": "prosumer",
          "type": "address"
        }
      ],
      "name": "EnergyListingDeleted",
      "type": "event"
    },
    {
      "anonymous": false,
      "inputs": [
        {
          "indexed": false,
          "internalType": "uint256",
          "name": "listingId",
          "type": "uint256"
        },
        {
          "indexed": true,
          "internalType": "address",
          "name": "prosumer",
          "type": "address"
        },
        {
          "indexed": false,
          "internalType": "uint256",
          "name": "energyAmount",
          "type": "uint256"
        },
        {
          "indexed": false,
          "internalType": "uint256",
          "name": "minPrice",
          "type": "uint256"
        },
        {
          "indexed": false,
          "internalType": "uint256",
          "name": "auctionEnd",
          "type": "uint256"
        }
      ],
      "name": "EnergyListingEdited",
      "type": "event"
    },
    {
      "anonymous": false,
      "inputs": [
        {
          "indexed": false,
          "internalType": "uint256",
          "name": "listingId",
          "type": "uint256"
        },
        {
          "indexed": true,
          "internalType": "address",
          "name": "prosumer",
          "type": "address"
        },
        {
          "indexed": false,
          "internalType": "uint256",
          "name": "energyAmount",
          "type": "uint256"
        },
        {
          "indexed": false,
          "internalType": "uint256",
          "name": "minPrice",
          "type": "uint256"
        }
      ],
      "name": "EnergyPosted",
      "type": "event"
    },
    {
      "anonymous": false,
      "inputs": [
        {
          "indexed": true,
          "internalType": "address",
          "name": "user",
          "type": "address"
        },
        {
          "indexed": false,
          "internalType": "enum EnergyTrading.Role",
          "name": "role",
          "type": "uint8"
        }
      ],
      "name": "Registered",
      "type": "event"
    },
    {
      "anonymous": false,
      "inputs": [
        {
          "indexed": false,
          "internalType": "uint256",
          "name": "listingId",
          "type": "uint256"
        },
        {
          "indexed": true,
          "internalType": "address",
          "name": "consumer",
          "type": "address"
        }
      ],
      "name": "TradeFinalized",
      "type": "event"
    },
    {
      "inputs": [
        {
          "internalType": "uint256",
          "name": "_listingId",
          "type": "uint256"
        }
      ],
      "name": "deleteEnergyPost",
      "outputs": [],
      "stateMutability": "nonpayable",
      "type": "function"
    },
    {
      "inputs": [
        {
          "internalType": "uint256",
          "name": "_listingId",
          "type": "uint256"
        },
        {
          "internalType": "uint256",
          "name": "_energyAmount",
          "type": "uint256"
        },
        {
          "internalType": "uint256",
          "name": "_minPrice",
          "type": "uint256"
        },
        {
          "internalType": "uint256",
          "name": "_auctionEnd",
          "type": "uint256"
        }
      ],
      "name": "editEnergyPost",
      "outputs": [],
      "stateMutability": "nonpayable",
      "type": "function"
    },
    {
      "inputs": [
        {
          "internalType": "uint256",
          "name": "_listingId",
          "type": "uint256"
        }
      ],
      "name": "finalizeTrade",
      "outputs": [],
      "stateMutability": "nonpayable",
      "type": "function"
    },
    {
      "inputs": [],
      "name": "getAllActiveOffers",
      "outputs": [
        {
          "components": [
            {
              "internalType": "uint256",
              "name": "id",
              "type": "uint256"
            },
            {
              "internalType": "address",
              "name": "prosumer",
              "type": "address"
            },
            {
              "internalType": "uint256",
              "name": "energyAmount",
              "type": "uint256"
            },
            {
              "internalType": "uint256",
              "name": "minPrice",
              "type": "uint256"
            },
            {
              "internalType": "enum EnergyTrading.TradeStatus",
              "name": "status",
              "type": "uint8"
            },
            {
              "internalType": "address",
              "name": "highestBidder",
              "type": "address"
            },
            {
              "internalType": "uint256",
              "name": "highestBid",
              "type": "uint256"
            },
            {
              "internalType": "address",
              "name": "secondHighestBidder",
              "type": "address"
            },
            {
              "internalType": "uint256",
              "name": "secondHighestBid",
              "type": "uint256"
            },
            {
              "internalType": "uint256",
              "name": "auctionEnd",
              "type": "uint256"
            },
            {
              "internalType": "bool",
              "name": "isScheduled",
              "type": "bool"
            }
          ],
          "internalType": "struct EnergyTrading.EnergyListing[]",
          "name": "",
          "type": "tuple[]"
        }
      ],
      "stateMutability": "view",
      "type": "function"
    },
    {
      "inputs": [
        {
          "internalType": "address",
          "name": "consumer",
          "type": "address"
        }
      ],
      "name": "getMyBids",
      "outputs": [
        {
          "components": [
            {
              "internalType": "uint256",
              "name": "id",
              "type": "uint256"
            },
            {
              "internalType": "address",
              "name": "prosumer",
              "type": "address"
            },
            {
              "internalType": "uint256",
              "name": "energyAmount",
              "type": "uint256"
            },
            {
              "internalType": "uint256",
              "name": "minPrice",
              "type": "uint256"
            },
            {
              "internalType": "enum EnergyTrading.TradeStatus",
              "name": "status",
              "type": "uint8"
            },
            {
              "internalType": "address",
              "name": "highestBidder",
              "type": "address"
            },
            {
              "internalType": "uint256",
              "name": "highestBid",
              "type": "uint256"
            },
            {
              "internalType": "address",
              "name": "secondHighestBidder",
              "type": "address"
            },
            {
              "internalType": "uint256",
              "name": "secondHighestBid",
              "type": "uint256"
            },
            {
              "internalType": "uint256",
              "name": "auctionEnd",
              "type": "uint256"
            },
            {
              "internalType": "bool",
              "name": "isScheduled",
              "type": "bool"
            }
          ],
          "internalType": "struct EnergyTrading.EnergyListing[]",
          "name": "",
          "type": "tuple[]"
        }
      ],
      "stateMutability": "view",
      "type": "function"
    },
    {
      "inputs": [
        {
          "internalType": "address",
          "name": "prosumer",
          "type": "address"
        }
      ],
      "name": "getMyPosts",
      "outputs": [
        {
          "components": [
            {
              "internalType": "uint256",
              "name": "id",
              "type": "uint256"
            },
            {
              "internalType": "address",
              "name": "prosumer",
              "type": "address"
            },
            {
              "internalType": "uint256",
              "name": "energyAmount",
              "type": "uint256"
            },
            {
              "internalType": "uint256",
              "name": "minPrice",
              "type": "uint256"
            },
            {
              "internalType": "enum EnergyTrading.TradeStatus",
              "name": "status",
              "type": "uint8"
            },
            {
              "internalType": "address",
              "name": "highestBidder",
              "type": "address"
            },
            {
              "internalType": "uint256",
              "name": "highestBid",
              "type": "uint256"
            },
            {
              "internalType": "address",
              "name": "secondHighestBidder",
              "type": "address"
            },
            {
              "internalType": "uint256",
              "name": "secondHighestBid",
              "type": "uint256"
            },
            {
              "internalType": "uint256",
              "name": "auctionEnd",
              "type": "uint256"
            },
            {
              "internalType": "bool",
              "name": "isScheduled",
              "type": "bool"
            }
          ],
          "internalType": "struct EnergyTrading.EnergyListing[]",
          "name": "",
          "type": "tuple[]"
        }
      ],
      "stateMutability": "view",
      "type": "function"
    },
    {
      "inputs": [],
      "name": "listingCount",
      "outputs": [
        {
          "internalType": "uint256",
          "name": "",
          "type": "uint256"
        }
      ],
      "stateMutability": "view",
      "type": "function"
    },
    {
      "inputs": [
        {
          "internalType": "uint256",
          "name": "",
          "type": "uint256"
        }
      ],
      "name": "listings",
      "outputs": [
        {
          "internalType": "uint256",
          "name": "id",
          "type": "uint256"
        },
        {
          "internalType": "address",
          "name": "prosumer",
          "type": "address"
        },
        {
          "internalType": "uint256",
          "name": "energyAmount",
          "type": "uint256"
        },
        {
          "internalType": "uint256",
          "name": "minPrice",
          "type": "uint256"
        },
        {
          "internalType": "enum EnergyTrading.TradeStatus",
          "name": "status",
          "type": "uint8"
        },
        {
          "internalType": "address",
          "name": "highestBidder",
          "type": "address"
        },
        {
          "internalType": "uint256",
          "name": "highestBid",
          "type": "uint256"
        },
        {
          "internalType": "address",
          "name": "secondHighestBidder",
          "type": "address"
        },
        {
          "internalType": "uint256",
          "name": "secondHighestBid",
          "type": "uint256"
        },
        {
          "internalType": "uint256",
          "name": "auctionEnd",
          "type": "uint256"
        },
        {
          "internalType": "bool",
          "name": "isScheduled",
          "type": "bool"
        }
      ],
      "stateMutability": "view",
      "type": "function"
    },
    {
      "inputs": [
        {
          "internalType": "uint256",
          "name": "_listingId",
          "type": "uint256"
        }
      ],
      "name": "placeBid",
      "outputs": [],
      "stateMutability": "payable",
      "type": "function"
    },
    {
      "inputs": [
        {
          "internalType": "uint256",
          "name": "_energyAmount",
          "type": "uint256"
        },
        {
          "internalType": "uint256",
          "name": "_minPrice",
          "type": "uint256"
        },
        {
          "internalType": "uint256",
          "name": "_auctionDuration",
          "type": "uint256"
        }
      ],
      "name": "postEnergy",
      "outputs": [],
      "stateMutability": "nonpayable",
      "type": "function"
    },
    {
      "inputs": [
        {
          "internalType": "address",
          "name": "",
          "type": "address"
        },
        {
          "internalType": "uint256",
          "name": "",
          "type": "uint256"
        }
      ],
      "name": "prosumerListings",
      "outputs": [
        {
          "internalType": "uint256",
          "name": "",
          "type": "uint256"
        }
      ],
      "stateMutability": "view",
      "type": "function"
    },
    {
      "inputs": [
        {
          "internalType": "enum EnergyTrading.Role",
          "name": "_role",
          "type": "uint8"
        }
      ],
      "name": "registerUser",
      "outputs": [],
      "stateMutability": "nonpayable",
      "type": "function"
    },
    {
      "inputs": [],
      "name": "snipeTimeExtension",
      "outputs": [
        {
          "internalType": "uint256",
          "name": "",
          "type": "uint256"
        }
      ],
      "stateMutability": "view",
      "type": "function"
    },
    {
      "inputs": [
        {
          "internalType": "address",
          "name": "",
          "type": "address"
        },
        {
          "internalType": "uint256",
          "name": "",
          "type": "uint256"
        }
      ],
      "name": "userBids",
      "outputs": [
        {
          "internalType": "uint256",
          "name": "",
          "type": "uint256"
        }
      ],
      "stateMutability": "view",
      "type": "function"
    },
    {
      "inputs": [
        {
          "internalType": "address",
          "name": "",
          "type": "address"
        }
      ],
      "name": "users",
      "outputs": [
        {
          "internalType": "enum EnergyTrading.Role",
          "name": "role",
          "type": "uint8"
        },
        {
          "internalType": "uint256",
          "name": "reputation",
          "type": "uint256"
        },
        {
          "internalType": "uint256",
          "name": "storedEnergy",
          "type": "uint256"
        }
      ],
      "stateMutability": "view",
      "type": "function"
    }
  ],
  "bytecode": "0x6080604052607860005534801561001557600080fd5b50613507806100256000396000f3fe6080604052600436106100e75760003560e01c806396ec50c31161008a578063bafb8a9811610059578063bafb8a98146102fa578063d58c71a514610323578063de74e57b1461034c578063ebc25fa614610393576100e7565b806396ec50c3146102375780639979ef4514610274578063a87430ba14610290578063a9b07c26146102cf576100e7565b8063093e605a116100c6578063093e605a1461017d57806313a8480d146101a6578063317a2748146101cf578063473906501461020c576100e7565b80623beca0146100ec57806302416b291461011757806302b8c8cd14610154575b600080fd5b3480156100f857600080fd5b506101016103d0565b60405161010e9190612a0d565b60405180910390f35b34801561012357600080fd5b5061013e60048036038101906101399190612a60565b61070a565b60405161014b9190612a0d565b60405180910390f35b34801561016057600080fd5b5061017b60048036038101906101769190612ab2565b610c5e565b005b34801561018957600080fd5b506101a4600480360381019061019f9190612b0b565b610e1a565b005b3480156101b257600080fd5b506101cd60048036038101906101c89190612b72565b611067565b005b3480156101db57600080fd5b506101f660048036038101906101f19190612bc5565b611427565b6040516102039190612c14565b60405180910390f35b34801561021857600080fd5b50610221611458565b60405161022e9190612c14565b60405180910390f35b34801561024357600080fd5b5061025e60048036038101906102599190612bc5565b61145e565b60405161026b9190612c14565b60405180910390f35b61028e60048036038101906102899190612c2f565b61148f565b005b34801561029c57600080fd5b506102b760048036038101906102b29190612a60565b611b15565b6040516102c693929190612ca4565b60405180910390f35b3480156102db57600080fd5b506102e4611b4c565b6040516102f19190612c14565b60405180910390f35b34801561030657600080fd5b50610321600480360381019061031c9190612c2f565b611b52565b005b34801561032f57600080fd5b5061034a60048036038101906103459190612c2f565b611da8565b005b34801561035857600080fd5b50610373600480360381019061036e9190612c2f565b61206e565b60405161038a9b9a99989796959493929190612d08565b60405180910390f35b34801561039f57600080fd5b506103ba60048036038101906103b59190612a60565b612142565b6040516103c79190612a0d565b60405180910390f35b6060600080600190505b600554811161045457600060048111156103f7576103f6612816565b5b6002600083815260200190815260200160002060040160009054906101000a900460ff16600481111561042d5761042c612816565b5b0361044157818061043d90612de2565b9250505b808061044c90612de2565b9150506103da565b5060008167ffffffffffffffff81111561047157610470612e2a565b5b6040519080825280602002602001820160405280156104aa57816020015b6104976126e0565b81526020019060019003908161048f5790505b509050600080600190505b600554811161070057600060048111156104d2576104d1612816565b5b6002600083815260200190815260200160002060040160009054906101000a900460ff16600481111561050857610507612816565b5b036106ed576002600082815260200190815260200160002060405180610160016040529081600082015481526020016001820160009054906101000a900473ffffffffffffffffffffffffffffffffffffffff1673ffffffffffffffffffffffffffffffffffffffff1673ffffffffffffffffffffffffffffffffffffffff16815260200160028201548152602001600382015481526020016004820160009054906101000a900460ff1660048111156105c5576105c4612816565b5b60048111156105d7576105d6612816565b5b81526020016004820160019054906101000a900473ffffffffffffffffffffffffffffffffffffffff1673ffffffffffffffffffffffffffffffffffffffff1673ffffffffffffffffffffffffffffffffffffffff168152602001600582015481526020016006820160009054906101000a900473ffffffffffffffffffffffffffffffffffffffff1673ffffffffffffffffffffffffffffffffffffffff1673ffffffffffffffffffffffffffffffffffffffff16815260200160078201548152602001600882015481526020016009820160009054906101000a900460ff1615151515815250508383815181106106d3576106d2612e59565b5b602002602001018190525081806106e990612de2565b9250505b80806106f890612de2565b9150506104b5565b5081935050505090565b60606000805b600360008573ffffffffffffffffffffffffffffffffffffffff1673ffffffffffffffffffffffffffffffffffffffff1681526020019081526020016000208054905081101561089a576000600360008673ffffffffffffffffffffffffffffffffffffffff1673ffffffffffffffffffffffffffffffffffffffff16815260200190815260200160002082815481106107ad576107ac612e59565b5b906000526020600020015490508473ffffffffffffffffffffffffffffffffffffffff166002600083815260200190815260200160002060010160009054906101000a900473ffffffffffffffffffffffffffffffffffffffff1673ffffffffffffffffffffffffffffffffffffffff16148015610872575060048081111561083957610838612816565b5b6002600083815260200190815260200160002060040160009054906101000a900460ff16600481111561086f5761086e612816565b5b14155b1561088657828061088290612de2565b9350505b50808061089290612de2565b915050610710565b5060008167ffffffffffffffff8111156108b7576108b6612e2a565b5b6040519080825280602002602001820160405280156108f057816020015b6108dd6126e0565b8152602001906001900390816108d55790505b5090506000805b600360008773ffffffffffffffffffffffffffffffffffffffff1673ffffffffffffffffffffffffffffffffffffffff16815260200190815260200160002080549050811015610c52576000600360008873ffffffffffffffffffffffffffffffffffffffff1673ffffffffffffffffffffffffffffffffffffffff168152602001908152602001600020828154811061099457610993612e59565b5b906000526020600020015490508673ffffffffffffffffffffffffffffffffffffffff166002600083815260200190815260200160002060010160009054906101000a900473ffffffffffffffffffffffffffffffffffffffff1673ffffffffffffffffffffffffffffffffffffffff16148015610a595750600480811115610a2057610a1f612816565b5b6002600083815260200190815260200160002060040160009054906101000a900460ff166004811115610a5657610a55612816565b5b14155b15610c3e576002600082815260200190815260200160002060405180610160016040529081600082015481526020016001820160009054906101000a900473ffffffffffffffffffffffffffffffffffffffff1673ffffffffffffffffffffffffffffffffffffffff1673ffffffffffffffffffffffffffffffffffffffff16815260200160028201548152602001600382015481526020016004820160009054906101000a900460ff166004811115610b1657610b15612816565b5b6004811115610b2857610b27612816565b5b81526020016004820160019054906101000a900473ffffffffffffffffffffffffffffffffffffffff1673ffffffffffffffffffffffffffffffffffffffff1673ffffffffffffffffffffffffffffffffffffffff168152602001600582015481526020016006820160009054906101000a900473ffffffffffffffffffffffffffffffffffffffff1673ffffffffffffffffffffffffffffffffffffffff1673ffffffffffffffffffffffffffffffffffffffff16815260200160078201548152602001600882015481526020016009820160009054906101000a900460ff161515151581525050848481518110610c2457610c23612e59565b5b60200260200101819052508280610c3a90612de2565b9350505b508080610c4a90612de2565b9150506108f7565b50819350505050919050565b60006002811115610c7257610c71612816565b5b600160003373ffffffffffffffffffffffffffffffffffffffff1673ffffffffffffffffffffffffffffffffffffffff16815260200190815260200160002060000160009054906101000a900460ff166002811115610cd457610cd3612816565b5b14610d14576040517f08c379a0000000000000000000000000000000000000000000000000000000008152600401610d0b90612ee5565b60405180910390fd5b6040518060600160405280826002811115610d3257610d31612816565b5b8152602001600081526020016000815250600160003373ffffffffffffffffffffffffffffffffffffffff1673ffffffffffffffffffffffffffffffffffffffff16815260200190815260200160002060008201518160000160006101000a81548160ff02191690836002811115610dad57610dac612816565b5b021790555060208201518160010155604082015181600201559050503373ffffffffffffffffffffffffffffffffffffffff167f89b4e995568c900aa52376cbed225dc1a013c9a43cb58186d69676ff593d7c4e82604051610e0f9190612f05565b60405180910390a250565b60016002811115610e2e57610e2d612816565b5b600160003373ffffffffffffffffffffffffffffffffffffffff1673ffffffffffffffffffffffffffffffffffffffff16815260200190815260200160002060000160009054906101000a900460ff166002811115610e9057610e8f612816565b5b14610ed0576040517f08c379a0000000000000000000000000000000000000000000000000000000008152600401610ec790612f6c565b60405180910390fd5b60006002600086815260200190815260200160002090503373ffffffffffffffffffffffffffffffffffffffff168160010160009054906101000a900473ffffffffffffffffffffffffffffffffffffffff1673ffffffffffffffffffffffffffffffffffffffff1614610f79576040517f08c379a0000000000000000000000000000000000000000000000000000000008152600401610f7090612fd8565b60405180910390fd5b60006004811115610f8d57610f8c612816565b5b8160040160009054906101000a900460ff166004811115610fb157610fb0612816565b5b14610ff1576040517f08c379a0000000000000000000000000000000000000000000000000000000008152600401610fe890613044565b60405180910390fd5b8381600201819055508281600301819055508181600801819055503373ffffffffffffffffffffffffffffffffffffffff167fead1643f76a5473362f901e6cc9172efc41df1d5cf0983cf69f56eefb2e2fdf7868686866040516110589493929190613064565b60405180910390a25050505050565b6001600281111561107b5761107a612816565b5b600160003373ffffffffffffffffffffffffffffffffffffffff1673ffffffffffffffffffffffffffffffffffffffff16815260200190815260200160002060000160009054906101000a900460ff1660028111156110dd576110dc612816565b5b1461111d576040517f08c379a000000000000000000000000000000000000000000000000000000000815260040161111490612f6c565b60405180910390fd5b6005600081548092919061113090612de2565b919050555060405180610160016040528060055481526020013373ffffffffffffffffffffffffffffffffffffffff1681526020018481526020018381526020016000600481111561118557611184612816565b5b8152602001600073ffffffffffffffffffffffffffffffffffffffff16815260200160008152602001600073ffffffffffffffffffffffffffffffffffffffff1681526020016000815260200182426111de91906130a9565b8152602001600015158152506002600060055481526020019081526020016000206000820151816000015560208201518160010160006101000a81548173ffffffffffffffffffffffffffffffffffffffff021916908373ffffffffffffffffffffffffffffffffffffffff160217905550604082015181600201556060820151816003015560808201518160040160006101000a81548160ff0219169083600481111561128f5761128e612816565b5b021790555060a08201518160040160016101000a81548173ffffffffffffffffffffffffffffffffffffffff021916908373ffffffffffffffffffffffffffffffffffffffff16021790555060c0820151816005015560e08201518160060160006101000a81548173ffffffffffffffffffffffffffffffffffffffff021916908373ffffffffffffffffffffffffffffffffffffffff160217905550610100820151816007015561012082015181600801556101408201518160090160006101000a81548160ff021916908315150217905550905050600360003373ffffffffffffffffffffffffffffffffffffffff1673ffffffffffffffffffffffffffffffffffffffff16815260200190815260200160002060055490806001815401808255809150506001900390600052602060002001600090919091909150553373ffffffffffffffffffffffffffffffffffffffff167fa6f24ff0819c36475b27327ddde99f8b25541733ea490efdc0904d604ac6d63e600554858560405161141a939291906130dd565b60405180910390a2505050565b6003602052816000526040600020818154811061144357600080fd5b90600052602060002001600091509150505481565b60005481565b6004602052816000526040600020818154811061147a57600080fd5b90600052602060002001600091509150505481565b6002808111156114a2576114a1612816565b5b600160003373ffffffffffffffffffffffffffffffffffffffff1673ffffffffffffffffffffffffffffffffffffffff16815260200190815260200160002060000160009054906101000a900460ff16600281111561150457611503612816565b5b14611544576040517f08c379a000000000000000000000000000000000000000000000000000000000815260040161153b90613160565b60405180910390fd5b60006002600083815260200190815260200160002090506000600481111561156f5761156e612816565b5b8160040160009054906101000a900460ff16600481111561159357611592612816565b5b146115d3576040517f08c379a00000000000000000000000000000000000000000000000000000000081526004016115ca906131cc565b60405180910390fd5b80600801544210611619576040517f08c379a000000000000000000000000000000000000000000000000000000000815260040161161090613238565b60405180910390fd5b6000341161165c576040517f08c379a0000000000000000000000000000000000000000000000000000000008152600401611653906132a4565b60405180910390fd5b8060010160009054906101000a900473ffffffffffffffffffffffffffffffffffffffff1673ffffffffffffffffffffffffffffffffffffffff163373ffffffffffffffffffffffffffffffffffffffff16036116ee576040517f08c379a00000000000000000000000000000000000000000000000000000000081526004016116e590613310565b60405180910390fd5b600073ffffffffffffffffffffffffffffffffffffffff168160040160019054906101000a900473ffffffffffffffffffffffffffffffffffffffff1673ffffffffffffffffffffffffffffffffffffffff161415801561179e57508060040160019054906101000a900473ffffffffffffffffffffffffffffffffffffffff1673ffffffffffffffffffffffffffffffffffffffff163373ffffffffffffffffffffffffffffffffffffffff16145b156117c357348160050160008282546117b791906130a9565b92505081905550611a86565b600073ffffffffffffffffffffffffffffffffffffffff168160040160019054906101000a900473ffffffffffffffffffffffffffffffffffffffff1673ffffffffffffffffffffffffffffffffffffffff161461188b578060040160019054906101000a900473ffffffffffffffffffffffffffffffffffffffff1673ffffffffffffffffffffffffffffffffffffffff166108fc82600501549081150290604051600060405180830381858888f19350505050158015611889573d6000803e3d6000fd5b505b8060040160019054906101000a900473ffffffffffffffffffffffffffffffffffffffff168160060160006101000a81548173ffffffffffffffffffffffffffffffffffffffff021916908373ffffffffffffffffffffffffffffffffffffffff16021790555080600501548160070181905550338160040160016101000a81548173ffffffffffffffffffffffffffffffffffffffff021916908373ffffffffffffffffffffffffffffffffffffffff1602179055503481600501819055506000805b600460003373ffffffffffffffffffffffffffffffffffffffff1673ffffffffffffffffffffffffffffffffffffffff16815260200190815260200160002080549050811015611a175783600460003373ffffffffffffffffffffffffffffffffffffffff1673ffffffffffffffffffffffffffffffffffffffff16815260200190815260200160002082815481106119eb576119ea612e59565b5b906000526020600020015403611a045760019150611a17565b8080611a0f90612de2565b91505061194f565b5080611a8457600460003373ffffffffffffffffffffffffffffffffffffffff1673ffffffffffffffffffffffffffffffffffffffff1681526020019081526020016000208390806001815401808255809150506001900390600052602060002001600090919091909150555b505b6000548160080154611a989190613330565b421115611abd57600054816008016000828254611ab591906130a9565b925050819055505b3373ffffffffffffffffffffffffffffffffffffffff167f0e54eff26401bf69b81b26f60bd85ef47f5d85275c1d268d84f68d6897431c47838360050154604051611b09929190613364565b60405180910390a25050565b60016020528060005260406000206000915090508060000160009054906101000a900460ff16908060010154908060020154905083565b60055481565b60016002811115611b6657611b65612816565b5b600160003373ffffffffffffffffffffffffffffffffffffffff1673ffffffffffffffffffffffffffffffffffffffff16815260200190815260200160002060000160009054906101000a900460ff166002811115611bc857611bc7612816565b5b14611c08576040517f08c379a0000000000000000000000000000000000000000000000000000000008152600401611bff90612f6c565b60405180910390fd5b60006002600083815260200190815260200160002090503373ffffffffffffffffffffffffffffffffffffffff168160010160009054906101000a900473ffffffffffffffffffffffffffffffffffffffff1673ffffffffffffffffffffffffffffffffffffffff1614611cb1576040517f08c379a0000000000000000000000000000000000000000000000000000000008152600401611ca890612fd8565b60405180910390fd5b60006004811115611cc557611cc4612816565b5b8160040160009054906101000a900460ff166004811115611ce957611ce8612816565b5b14611d29576040517f08c379a0000000000000000000000000000000000000000000000000000000008152600401611d20906133d9565b60405180910390fd5b60048160040160006101000a81548160ff02191690836004811115611d5157611d50612816565b5b02179055503373ffffffffffffffffffffffffffffffffffffffff167fae60abb1ab7ec39c6b3a4d0da60ec937caa3f4b41f167cef3fa8a0c93dfcd65483604051611d9c9190612c14565b60405180910390a25050565b60016002811115611dbc57611dbb612816565b5b600160003373ffffffffffffffffffffffffffffffffffffffff1673ffffffffffffffffffffffffffffffffffffffff16815260200190815260200160002060000160009054906101000a900460ff166002811115611e1e57611e1d612816565b5b14611e5e576040517f08c379a0000000000000000000000000000000000000000000000000000000008152600401611e5590612f6c565b60405180910390fd5b600060026000838152602001908152602001600020905060006004811115611e8957611e88612816565b5b8160040160009054906101000a900460ff166004811115611ead57611eac612816565b5b14611eed576040517f08c379a0000000000000000000000000000000000000000000000000000000008152600401611ee490613445565b60405180910390fd5b600073ffffffffffffffffffffffffffffffffffffffff168160040160019054906101000a900473ffffffffffffffffffffffffffffffffffffffff1673ffffffffffffffffffffffffffffffffffffffff1603611f80576040517f08c379a0000000000000000000000000000000000000000000000000000000008152600401611f77906134b1565b60405180910390fd5b60028160040160006101000a81548160ff02191690836004811115611fa857611fa7612816565b5b02179055503373ffffffffffffffffffffffffffffffffffffffff166108fc82600501549081150290604051600060405180830381858888f19350505050158015611ff7573d6000803e3d6000fd5b508060040160019054906101000a900473ffffffffffffffffffffffffffffffffffffffff1673ffffffffffffffffffffffffffffffffffffffff167f35848b3bf77286fb72d5ce82c3fab7eca41dfcb7c17391dcf1b8a51c33e60001836040516120629190612c14565b60405180910390a25050565b60026020528060005260406000206000915090508060000154908060010160009054906101000a900473ffffffffffffffffffffffffffffffffffffffff16908060020154908060030154908060040160009054906101000a900460ff16908060040160019054906101000a900473ffffffffffffffffffffffffffffffffffffffff16908060050154908060060160009054906101000a900473ffffffffffffffffffffffffffffffffffffffff16908060070154908060080154908060090160009054906101000a900460ff1690508b565b60606000805b600460008573ffffffffffffffffffffffffffffffffffffffff1673ffffffffffffffffffffffffffffffffffffffff168152602001908152602001600020805490508110156122f7576000600460008673ffffffffffffffffffffffffffffffffffffffff1673ffffffffffffffffffffffffffffffffffffffff16815260200190815260200160002082815481106121e5576121e4612e59565b5b9060005260206000200154905060008111801561226357508473ffffffffffffffffffffffffffffffffffffffff166002600083815260200190815260200160002060040160019054906101000a900473ffffffffffffffffffffffffffffffffffffffff1673ffffffffffffffffffffffffffffffffffffffff16145b806122cf57508473ffffffffffffffffffffffffffffffffffffffff166002600083815260200190815260200160002060060160009054906101000a900473ffffffffffffffffffffffffffffffffffffffff1673ffffffffffffffffffffffffffffffffffffffff16145b156122e35782806122df90612de2565b9350505b5080806122ef90612de2565b915050612148565b5060008167ffffffffffffffff81111561231457612313612e2a565b5b60405190808252806020026020018201604052801561234d57816020015b61233a6126e0565b8152602001906001900390816123325790505b5090506000805b600460008773ffffffffffffffffffffffffffffffffffffffff1673ffffffffffffffffffffffffffffffffffffffff168152602001908152602001600020805490508110156126d4576000600460008873ffffffffffffffffffffffffffffffffffffffff1673ffffffffffffffffffffffffffffffffffffffff16815260200190815260200160002082815481106123f1576123f0612e59565b5b906000526020600020015490506000811180156124db57508673ffffffffffffffffffffffffffffffffffffffff166002600083815260200190815260200160002060040160019054906101000a900473ffffffffffffffffffffffffffffffffffffffff1673ffffffffffffffffffffffffffffffffffffffff1614806124da57508673ffffffffffffffffffffffffffffffffffffffff166002600083815260200190815260200160002060060160009054906101000a900473ffffffffffffffffffffffffffffffffffffffff1673ffffffffffffffffffffffffffffffffffffffff16145b5b156126c0576002600082815260200190815260200160002060405180610160016040529081600082015481526020016001820160009054906101000a900473ffffffffffffffffffffffffffffffffffffffff1673ffffffffffffffffffffffffffffffffffffffff1673ffffffffffffffffffffffffffffffffffffffff16815260200160028201548152602001600382015481526020016004820160009054906101000a900460ff16600481111561259857612597612816565b5b60048111156125aa576125a9612816565b5b81526020016004820160019054906101000a900473ffffffffffffffffffffffffffffffffffffffff1673ffffffffffffffffffffffffffffffffffffffff1673ffffffffffffffffffffffffffffffffffffffff168152602001600582015481526020016006820160009054906101000a900473ffffffffffffffffffffffffffffffffffffffff1673ffffffffffffffffffffffffffffffffffffffff1673ffffffffffffffffffffffffffffffffffffffff16815260200160078201548152602001600882015481526020016009820160009054906101000a900460ff1615151515815250508484815181106126a6576126a5612e59565b5b602002602001018190525082806126bc90612de2565b9350505b5080806126cc90612de2565b915050612354565b50819350505050919050565b60405180610160016040528060008152602001600073ffffffffffffffffffffffffffffffffffffffff16815260200160008152602001600081526020016000600481111561273257612731612816565b5b8152602001600073ffffffffffffffffffffffffffffffffffffffff16815260200160008152602001600073ffffffffffffffffffffffffffffffffffffffff16815260200160008152602001600081526020016000151581525090565b600081519050919050565b600082825260208201905092915050565b6000819050602082019050919050565b6000819050919050565b6127cf816127bc565b82525050565b600073ffffffffffffffffffffffffffffffffffffffff82169050919050565b6000612800826127d5565b9050919050565b612810816127f5565b82525050565b7f4e487b7100000000000000000000000000000000000000000000000000000000600052602160045260246000fd5b6005811061285657612855612816565b5b50565b600081905061286782612845565b919050565b600061287782612859565b9050919050565b6128878161286c565b82525050565b60008115159050919050565b6128a28161288d565b82525050565b610160820160008201516128bf60008501826127c6565b5060208201516128d26020850182612807565b5060408201516128e560408501826127c6565b5060608201516128f860608501826127c6565b50608082015161290b608085018261287e565b5060a082015161291e60a0850182612807565b5060c082015161293160c08501826127c6565b5060e082015161294460e0850182612807565b506101008201516129596101008501826127c6565b5061012082015161296e6101208501826127c6565b50610140820151612983610140850182612899565b50505050565b600061299583836128a8565b6101608301905092915050565b6000602082019050919050565b60006129ba82612790565b6129c4818561279b565b93506129cf836127ac565b8060005b83811015612a005781516129e78882612989565b97506129f2836129a2565b9250506001810190506129d3565b5085935050505092915050565b60006020820190508181036000830152612a2781846129af565b905092915050565b600080fd5b612a3d816127f5565b8114612a4857600080fd5b50565b600081359050612a5a81612a34565b92915050565b600060208284031215612a7657612a75612a2f565b5b6000612a8484828501612a4b565b91505092915050565b60038110612a9a57600080fd5b50565b600081359050612aac81612a8d565b92915050565b600060208284031215612ac857612ac7612a2f565b5b6000612ad684828501612a9d565b91505092915050565b612ae8816127bc565b8114612af357600080fd5b50565b600081359050612b0581612adf565b92915050565b60008060008060808587031215612b2557612b24612a2f565b5b6000612b3387828801612af6565b9450506020612b4487828801612af6565b9350506040612b5587828801612af6565b9250506060612b6687828801612af6565b91505092959194509250565b600080600060608486031215612b8b57612b8a612a2f565b5b6000612b9986828701612af6565b9350506020612baa86828701612af6565b9250506040612bbb86828701612af6565b9150509250925092565b60008060408385031215612bdc57612bdb612a2f565b5b6000612bea85828601612a4b565b9250506020612bfb85828601612af6565b9150509250929050565b612c0e816127bc565b82525050565b6000602082019050612c296000830184612c05565b92915050565b600060208284031215612c4557612c44612a2f565b5b6000612c5384828501612af6565b91505092915050565b60038110612c6d57612c6c612816565b5b50565b6000819050612c7e82612c5c565b919050565b6000612c8e82612c70565b9050919050565b612c9e81612c83565b82525050565b6000606082019050612cb96000830186612c95565b612cc66020830185612c05565b612cd36040830184612c05565b949350505050565b612ce4816127f5565b82525050565b612cf38161286c565b82525050565b612d028161288d565b82525050565b600061016082019050612d1e600083018e612c05565b612d2b602083018d612cdb565b612d38604083018c612c05565b612d45606083018b612c05565b612d52608083018a612cea565b612d5f60a0830189612cdb565b612d6c60c0830188612c05565b612d7960e0830187612cdb565b612d87610100830186612c05565b612d95610120830185612c05565b612da3610140830184612cf9565b9c9b505050505050505050505050565b7f4e487b7100000000000000000000000000000000000000000000000000000000600052601160045260246000fd5b6000612ded826127bc565b91507fffffffffffffffffffffffffffffffffffffffffffffffffffffffffffffffff8203612e1f57612e1e612db3565b5b600182019050919050565b7f4e487b7100000000000000000000000000000000000000000000000000000000600052604160045260246000fd5b7f4e487b7100000000000000000000000000000000000000000000000000000000600052603260045260246000fd5b600082825260208201905092915050565b7f5573657220616c72656164792072656769737465726564000000000000000000600082015250565b6000612ecf601783612e88565b9150612eda82612e99565b602082019050919050565b60006020820190508181036000830152612efe81612ec2565b9050919050565b6000602082019050612f1a6000830184612c95565b92915050565b7f4e6f74206120726567697374657265642070726f73756d657200000000000000600082015250565b6000612f56601983612e88565b9150612f6182612f20565b602082019050919050565b60006020820190508181036000830152612f8581612f49565b9050919050565b7f4e6f7420746865206f776e6572206f6620746865206c697374696e6700000000600082015250565b6000612fc2601c83612e88565b9150612fcd82612f8c565b602082019050919050565b60006020820190508181036000830152612ff181612fb5565b9050919050565b7f43616e6e6f742065646974206120636c6f736564206c697374696e6700000000600082015250565b600061302e601c83612e88565b915061303982612ff8565b602082019050919050565b6000602082019050818103600083015261305d81613021565b9050919050565b60006080820190506130796000830187612c05565b6130866020830186612c05565b6130936040830185612c05565b6130a06060830184612c05565b95945050505050565b60006130b4826127bc565b91506130bf836127bc565b92508282019050808211156130d7576130d6612db3565b5b92915050565b60006060820190506130f26000830186612c05565b6130ff6020830185612c05565b61310c6040830184612c05565b949350505050565b7f4e6f742061207265676973746572656420636f6e73756d657200000000000000600082015250565b600061314a601983612e88565b915061315582613114565b602082019050919050565b600060208201905081810360008301526131798161313d565b9050919050565b7f4c697374696e67206e6f74206f70656e00000000000000000000000000000000600082015250565b60006131b6601083612e88565b91506131c182613180565b602082019050919050565b600060208201905081810360008301526131e5816131a9565b9050919050565b7f41756374696f6e20656e64656400000000000000000000000000000000000000600082015250565b6000613222600d83612e88565b915061322d826131ec565b602082019050919050565b6000602082019050818103600083015261325181613215565b9050919050565b7f426964206d7573742062652067726561746572207468616e2030000000000000600082015250565b600061328e601a83612e88565b915061329982613258565b602082019050919050565b600060208201905081810360008301526132bd81613281565b9050919050565b7f43616e6e6f7420626964206f6e20796f7572206f776e206c697374696e670000600082015250565b60006132fa601e83612e88565b9150613305826132c4565b602082019050919050565b60006020820190508181036000830152613329816132ed565b9050919050565b600061333b826127bc565b9150613346836127bc565b925082820390508181111561335e5761335d612db3565b5b92915050565b60006040820190506133796000830185612c05565b6133866020830184612c05565b9392505050565b7f43616e6e6f742064656c657465206120636c6f736564206c697374696e670000600082015250565b60006133c3601e83612e88565b91506133ce8261338d565b602082019050919050565b600060208201905081810360008301526133f2816133b6565b9050919050565b7f5472616465206e6f74206f70656e000000000000000000000000000000000000600082015250565b600061342f600e83612e88565b915061343a826133f9565b602082019050919050565b6000602082019050818103600083015261345e81613422565b9050919050565b7f4e6f206269647320706c61636564000000000000000000000000000000000000600082015250565b600061349b600e83612e88565b91506134a682613465565b602082019050919050565b600060208201905081810360008301526134ca8161348e565b905091905056fea2646970667358221220142e8d9d37628be0df4bddf6638c91f4984858dd711752acc167ca73dfe5e27b64736f6c63430008130033",
  "linkReferences": {},
  "deployedLinkReferences": {}
}